:100000000C94FB020C9442030C9442030C944203A4
:100010000C9442030C9442030C9442030C9442034C
:100020000C9442030C9442030C94B12C0C94832D39
:100030000C9489270C9442030C9442030C944203C1
:100040000C9442030C9442030C9442030C9442031C
:100050000C9442030C94FE270C9442030C9442032C
:100060000C9442030C9442030C9442030C944203FC
:100070000C9442030C9442030C9442030C944203EC
:100080000C9442030C9442030C9442030C944203DC
:100090000C9442030C9442030C9442030C944203CC
:1000A0000C9442030C9442030C9442037715801580
:1000B00085158A158F15941599159E15A315A815E4
:1000C000AD15B215B715BC15C115C615CB15D01594
:1000D000D515DA15DF15E415E915EE15F315F81544
:1000E000FD15021607160C16111616161B162016ED
:1000F00025162A162F16CD17D017D517DC17E1179E
:10010000E617EB17F017F517FA17FF17041806187C
:1001100008180A1810181018101810181018671D51
:10012000671D991D991DE61D041E251F251F0F1E05
:10013000A41EB51EB51E151F251F251F1E1FC51F7A
:10014000C51FD71FD71FCE1FD71FD71FD71FC51F2C
:10015000C51FD31FD71FD71FD31FF02D172E0F2F4B
:10016000172E0F2F632E862E0F2FDD2EEC2E29003B
:100170001E001F0020002100220023002400250073
:10018000260027002A002B4314001A00080015003F
:1001900017001C0018000C00120013003400E100CE
:1001A00004001600070009000A000B000D000E00F5
:1001B0000F0033003400E0001D681B640643194241
:1001C0002C000000054111441000DA5C03510100CD
:1001D0000100010001000100010001000100010017
:1001E000010001004C0001001E001F002000210042
:1001F0002200230024002500260027000100010022
:100200003A003B003C003D003E003F004000410002
:1002100042004300010001000100010001000551FE
:100220000100000001005000510052004F00010089
:1002300001000100010001000100010001000100B6
:10024000010001004C0001001E021F0220022102D9
:1002500022022302240225022602270201000100B5
:1002600044004500010001000100010001000100FF
:100270000100350001000100010001000100010042
:100280000100000005515000510052004F000100D4
:100290000100010001000100010001000100010056
:1002A000010001004C0001000000000000000000FF
:1002B00000002D002E002F00300031000100010051
:1002C0000000000000000000000036003700380089
:1002D000330034002800010001000100010001008A
:1002E0000100000090004A004E004B004D0001004C
:1002F00001000100010001000100010001000100F6
:1003000001000100010001000000000000000000E9
:1003100000002D022E022F023002310201000100E6
:100320000000000000000000000036023702380222
:10033000330234020100010001000100010001004C
:1003400001000000010001000100010001000000A7
:10035000005C015C000000000000000000000000E4
:10036000A500A600A7000000C35CC45CD65C00002A
:100370000000C65CCA5CC85CCC5C000000000000E9
:10038000C05CC15CC25C00000000C75CCB5CC95CA7
:10039000CD5C000000000000000000000000010033
:1003A000000000000100000000000000000000014B
:1003B0000101010101010101020202020202020225
:1003C00002030303030303030304040404040404F7
:1003D00005050505050606060606070707070708BB
:1003E000080808090909090A0A0A0B0B0B0C0C0C6E
:1003F0000D0D0D0E0E0E0F0F0F1010111111121208
:1004000013131414151516161717181819191A1A84
:100410001B1B1C1D1D1E1E1F2020212222232424E5
:10042000252626272829292A2B2C2D2D2E2F303121
:100430003232333435363738393A3B3C3D3E3F4033
:100440004142434445464748494A4C4D4E4F50511E
:100450005354555658595A5B5D5E5F6162646566D8
:1004600068696B6C6D6F7072737577787A7B7D7E5F
:100470008082838587888A8C8E8F91939596989AAF
:100480009C9EA0A2A3A5A7A9ABADAFB1B3B5B7BAC7
:10049000BCBEC0C2C4C6C9CBCDCFD1D4D6D8DBDD9B
:1004A000DFE2E4E7E9EBEEF0F3F5F8FAFDFF220313
:1004B00042004D0034003000200048006F007400FE
:1004C0007300770061007000200052004700420076
:1004D000000016034B0050005200650070007500CC
:1004E00062006C0069006300000004030904090253
:1004F0003B00020100A0FA09040000010301010011
:100500000921110100012240000705810308000AAA
:10051000090401000103000000092111010001226A
:100520007B000705820320000A1201100100000071
:1005300008504B303401000102000105010902A1FD
:100540000185020901A100050919012908150025E5
:1005500001950875018102050109300931158125D0
:100560007F95027508810609381581257F950175EB
:10057000088106050C0A38021581257F950175084A
:100580008106C0C005010980A101850319012AB7B0
:1005900000150126B700950175108100C0050C09F2
:1005A00001A101850419012AA002150126A00295C6
:1005B0000175108100C005010906A101050719E0B8
:1005C00029E7150025019508750181029501750837
:1005D00081010507190029FF150026FF0095067502
:1005E00008810005081901290595057501910295F5
:1005F0000175039101C011241FBECFEFDAE0DEBF09
:10060000CDBF04B603FE27C080913A0490913B040D
:10061000A0913C04B0913D048730904BA740B04B73
:10062000D1F410923A0410923B0410923C041092C0
:100630003D0414BE84B7877F84BF0FB6F894A89595
:1006400080916000886180936000109260000FBE0E
:10065000E0E0F8E3099512E0A0E0B1E0EAE1F1E6BC
:1006600002C005900D92A437B107D9F724E0A4E7A2
:10067000B2E001C01D92AA33B207E1F70E94E92956
:100680000C948B300C94000081E0089581E0089573
:100690000C94460308950C944A031F93CF93DF9361
:1006A00000D000D01F92CDB7DEB749835A836B8349
:1006B0003091CE0289819A81311114C0662359F09C
:1006C000222349F00E94FE24182F682F89819A81E5
:1006D0000E94A72403C00E94D224182F69817A8126
:1006E000812F04C00E94FE2469817A810F900F90AF
:1006F0000F900F900F90DF91CF911F910C940904F0
:10070000FC01262F408151816281738184810C9488
:100710004D03CF93DF93EC0160E00E948003BE01A4
:10072000DF91CF910C944B030E944F280E943826F2
:10073000811102C00E94DF260E9485160C942C06AF
:100740000C94280608950E94B31F0E94A2032FEF65
:1007500084E39CE0215080409040E1F700C000001D
:100760000C9424280F931F93CF93DF93EC0161E047
:100770000E9480038C01BE010E944803882379F106
:10078000BE01C8010E94B418882349F1BE01C80106
:100790000E940619882319F1BE01C8010E94311A6E
:1007A0008823E9F0BE01C8010E94B6178823B9F07A
:1007B0008A81882369F001158CE5180731F00F3D17
:1007C0001C4531F40E94DF260AC00E94A30307C023
:1007D000CE01DF91CF911F910F910C94440380E0E3
:1007E000DF91CF911F910F91089508950C94F50317
:1007F00081E008950C94F803CF93C82F0E94F6036C
:100800008C2F0E94FA03CF91089580E090E0089524
:10081000089520E3829FC0011124FC012CE0729F07
:10082000E00DF11D1124E60FF11DEE0FFF1FE2593F
:10083000FE4F859194910895880F991FFC01E25510
:10084000FC4F859194910895CF93DF930E94090402
:100850000E943C05EC018115904508F041C0C1158E
:1008600080E4D80708F0D1C0C83ED10510F5C03EDD
:10087000D10508F0FDC0C83AD10578F4C53AD105D4
:1008800008F0A2C0C130D10509F4F2C008F4EEC0EE
:10089000C430D10508F0ECC0E9C0CF3BD10508F465
:1008A0009BC0C03CD10508F4E1C0CE01805C910939
:1008B0009EC0C11590E2D90758F4C11521E0D207B6
:1008C00008F0D6C0CD3ED10508F4D0C0D065D0C068
:1008D000C11580E3D80708F08EC0CE019F7087C095
:1008E000C11595E5D90708F043C0C11524E5D20725
:1008F00008F0A2C0C11582E5D80708F5C11591E539
:10090000D90708F085C0CE0174E0969587957A9551
:10091000E1F783709C2F937021E030E002C0220F3A
:10092000331F9A95E2F73C68382BCF70C695C69571
:1009300080E2C89FE0011124C22BD32B99C09E01F5
:10094000237033278C2F86958695C115D34508F0E3
:1009500064C0C1E0D0E002C0CC0FDD1F2A95E2F7F1
:1009600020E2829FC0011124C82BD92BDC6880C0F3
:10097000C11529E5D207A0F4C11588E5D80708F00C
:1009800060C0C11596E5D90708F070C08C2F0E9491
:10099000D0058F71C82FD0E0DC2FCC27D06268C083
:1009A000C1152AE5D20708F451C0CE019056811531
:1009B000904208F05BC08D2F8F710E94D005DD271B
:1009C000D0628F71D82B54C0C55AD0E0C15EDD4FC4
:1009D000C881D0E0D0644CC0C85AD0E0CC0FDD1F35
:1009E000CF50DE4F0990D881C02DD46441C00E9401
:1009F0001C04EC013DC0CE019927D3FF03C0EC01DC
:100A0000D86C36C0EC01D06C33C0DF70D06A30C017
:100A1000DC2FCC27C16FD06A2BC0C1E0D0E002C070
:100A2000CC0FDD1F2A95E2F720E2829FC00111243E
:100A3000C82BD92BDA681CC0DC2FCC27C46FD06A36
:100A400017C0DC2FCC27C06FD06A12C08C2F8F70DC
:100A50000E94D00594E0D695C7959A95E1F7CF709E
:100A6000D0E0DC2FCC27D069C82B02C0C0E0D0E09A
:100A7000CE01DF91CF9108958238910569F1B0F4EC
:100A80008133910509F46DC048F48932910509F468
:100A900063C08A32910509F469C0089585339105D0
:100AA00009F455C089339105B9F00895833E910545
:100AB00069F138F4803E9105B1F0823E910509F16B
:100AC0000895863E9105A9F1873E9105B9F1843ECE
:100AD000910509F064C023C020912B0420FD4FC074
:100AE00021FD4DC0089580912B0480FD44C080916C
:100AF0002C0480FF44C080912B0484FD42C083EE0F
:100B00004DC080912B0482FF38C0F5CF80912B041B
:100B100082FD33C080912C0480FD31C0ECCF8091E8
:100B20002C0481FF32C080912B0484FD2AC087EE03
:100B300035C080912B0483FF26C0F5CF80912B0414
:100B400083FD21C080912C0481FD1FC0ECCF8091DA
:100B50002B0485FD1CC01DC080912B0485FD19C090
:100B600016C080912B0486FD16C017C080912B04FF
:100B700086FD13C010C089E311C082EE0FC080EE65
:100B80000DC080E00BC086EE09C084EE07C089E28C
:100B900005C085E303C08AE201C081E390E00895C7
:100BA00090912B0492FF0DC0282F2871283019F442
:100BB000877F846006C0282F2471243011F48B7F36
:100BC000886093FF0DC0282F2871283119F4877E83
:100BD000846106C0282F2471243111F48B7E886132
:100BE00020912C0420FF0DC0382F3871383019F4B3
:100BF000877F816006C0382F3171313011F48E7FCC
:100C0000886021FF0DC0282F2871283119F4877EB4
:100C1000816106C0282F2171213111F48E7E8861F7
:100C200094FD877E0895E82FF0E0EE0FFF1FE25B52
:100C3000FC4F808191810895089580EA8A95F1F7AB
:100C4000089500C008950C941D0608950C9425067F
:100C50000C9426060C9425060C942A06F894E82F8A
:100C6000E295EF70F0E031A1282F2F7081E090E045
:100C700001C0880F2A95EAF7982F9095932391A3A6
:100C800092A1892B82A3789408950F931F93CF93F9
:100C9000DF9383E30E942E0682E30E942E0686ECF9
:100CA0000E942E0685E30E942E06C2E2D2E00EE2EA
:100CB00012E089910E942E060C171D07D1F71092A1
:100CC00047031092460310924F0310924E03109266
:100CD000490310924803109251031092500310924E
:100CE0004B0310924A031092530310925203109236
:100CF0004D0310924C03109255031092540384E05C
:100D00000E941B07DF91CF911F910F910C949403C8
:100D10007F928F929F92AF92BF92CF92DF92EF928B
:100D2000FF920F931F93CF93DF9306E413E08EE2BD
:100D3000E82E82E0F82EC0E0D0E0712CAA24A39423
:100D4000B12C4701F7018081F894E82FE295EF700C
:100D5000F0E021A18F70A50102C0440F551F8A95B4
:100D6000E2F7CA01922F982B91A392A18095892333
:100D700082A378940E942106E2E2F2E020E030E0D3
:100D8000C12CD12C4191A42FA295AF70B0E09096C8
:100D90008C9190E04F7002C0959587954A95E2F747
:100DA00080FD08C0C501022E02C0880F991F0A9459
:100DB000E2F702C080E090E0C82AD92A2F5F3F4FB7
:100DC0002C303105F9F65FEFE51AF50AF401808160
:100DD0000E942E06C330D10511F00E942306F801AF
:100DE00080819181C816D90621F0D182C08281E02C
:100DF00001C080E0782A21960E5F1F4FC430D105D4
:100E000009F09FCF272D44E06EE473E086E493E081
:100E10000E941C070E94A003872DDF91CF911F9194
:100E20000F91FF90EF90DF90CF90BF90AF909F9089
:100E30008F907F9008950895FF920F931F93CF9303
:100E4000DF93F82E092F162FD72FC42F222349F016
:100E500081E0809378020E94BB2790937702809371
:100E60007602809178028823D9F080917602909161
:100E700077020E94D327069798F0EF2DF02FA12F2D
:100E8000BD2F80E090E04C2F50E08417950734F49C
:100E9000219131912D933D930196F7CF10927802D5
:100EA000DF91CF911F910F91FF90089580917F0264
:100EB00080FF0BC06091D80185E0689FB0011124CC
:100EC00075956795759567952BC081FF09C06091F1
:100ED000D80185E0689FB00111247595679520C001
:100EE00082FF07C06091D80185E0689FB00111249E
:100EF00017C090917E029923D1F06091D701961787
:100F000088F72091D80185E0289F90011124929FB5
:100F1000A001939F500D112470E0CA010E94572F29
:100F20006038710540F46115710519F406C065E07B
:100F300070E0862F08958FE7089581E008958091ED
:100F40007F0280FF08C06091D40170E075956795BD
:100F50007595679521C081FF06C06091D40170E04E
:100F60007595679519C082FF04C06091D40170E047
:100F700010C090917D02992399F06091D30196174A
:100F8000A0F78091D401899FC001112470E00E94D4
:100F9000572F6038710540F46115710519F406C0CA
:100FA00061E070E0862F08958FE7089581E008954D
:100FB0008D3E21F40E945607819504C08E3E29F48F
:100FC0000E9456078093830208958F3E21F40E9469
:100FD0005607819504C0803F29F40E9456078093EC
:100FE00082020895893F19F40E949F0705C08A3F35
:100FF00031F40E949F0781958093840208958B3F6E
:1010000021F40E949F07819504C08C3F29F40E941F
:101010009F078093850208959FE0980F983078F499
:1010200021E030E0A90102C0440F551F9A95E2F774
:10103000CA0190918102892B8093810208958D3F8E
:1010400021F480917F0281600BC08E3F21F480915A
:101050007F02826005C08F3F29F480917F02846007
:1010600080937F0208958D3E39F49091830297FF1B
:1010700035C01092830259C08E3E29F490918302AC
:101080001916BCF32BC0909182028F3E29F497FF72
:1010900025C01092820249C0803F19F41916CCF382
:1010A0001DC090918402893F29F41916BCF4109256
:1010B00084023BC08A3F19F497FF10C0F8CF8B3FE2
:1010C00039F49091850297FF09C0109285022DC0D6
:1010D0008C3F21F4909185021916BCF39FE0980F84
:1010E000983080F421E030E0A90102C0440F551F80
:1010F0009A95E2F7CA0180959091810289238093A5
:10110000810213C08D3F21F480917F028E7F0BC03E
:101110008E3F21F480917F028D7F05C08F3F29F49F
:1011200080917F028B7F80937F0280918202811168
:1011300006C080918302811102C010927E028091CC
:101140008402811106C080918502811102C0109233
:101150007D0208950E94BB2720918202211104C0C4
:1011600020918302222321F090937C0280937B02C2
:1011700020918402211104C020918502222321F0B4
:1011800090937A028093790280E892E00C947E1A20
:10119000EF92FF920F931F93CF93DF9300D000D075
:1011A00000D0CDB7DEB786E0E0E8F2E0DE011196D0
:1011B00001900D928A95E1F7E0908202F09083020F
:1011C0000091840210918502109282021092830293
:1011D0001092840210928502E11003C0FF2009F4EE
:1011E0005DC080917B0290917C020E94D327AC016C
:1011F00090917E02992339F02091D90130E0241793
:10120000350758F04BC02091DA018AE0289F900101
:1012100011242417350718F041C09F3F19F09F5F34
:1012200090937E02EE2061F00E9456071E1414F087
:101230009FEF01C091E0989F902D1124909382021E
:10124000FF2061F00E9456071F1414F09FEF01C0A9
:1012500091E0989F902D1124909383023091820207
:101260003323E1F0209183022223C1F045EB3403C4
:10127000C0011124992319F09093820203C081E0E8
:101280008093820235EB2303C0011124992319F0C6
:101290009093830203C081E080938302011103C015
:1012A000112309F45DC08091790290917A020E9425
:1012B000D327AC0190917D02992339F02091D5017B
:1012C00030E02417350758F04BC02091D6018AE052
:1012D000289F900111242417350718F041C09F3F23
:1012E00019F09F5F90937D02002361F00E949F0799
:1012F000101614F09FEF01C091E0989F902D1124DB
:1013000090938402112361F00E949F07111614F03C
:101310009FEF01C091E0989F902D1124909385023A
:10132000309184023323E1F0209185022223C1F021
:1013300045EB3403C0011124992319F090938402E2
:1013400003C081E08093840235EB2303C0011124A4
:10135000992319F09093850203C081E08093850260
:101360008091820281110BC080918302811107C09C
:1013700080918402811103C08091850281110E94B5
:10138000AA08EB82FC820D831E8386E0FE01319663
:10139000A0E8B2E001900D928A95E1F726960FB68B
:1013A000F894DEBF0FBECDBFDF91CF911F910F919B
:1013B000FF90EF900895E0E8F2E086E0DF011D92F3
:1013C0008A95E9F710927E0210927D0210927F02B8
:1013D0000895EF92FF920F931F93CF93DF938B01AA
:1013E000682F11110AC0442329F0E82FF0E0E255DC
:1013F000FC4F6491762F862F75C0212F30E0E82FA7
:10140000F0E0442321F0E255FC4FE491F0E046E0A7
:10141000049FC0011124CFEFD0E0BE010E94432FF2
:101420004BEA4603C001479F900D1124800F911D88
:10143000800F911D982F990F890FAE01421B530BFE
:101440004E9FD0014F9FB00D5E9FB00D11249B2F7A
:10145000189FA0011124452F55278E01041B150B41
:101460000E9FA0010F9F500D1E9F500D11247E0155
:10147000E81AF108E29E8001E39E100DF29E100D25
:101480001124212F3327C21BD30BCE9F9001CF9F56
:10149000300DDE9F300D112462307105A9F048F443
:1014A0006115710569F061307105C9F48B2F752FD5
:1014B0000DC06430710581F058F06630710579F423
:1014C0007E2F8B2F932F0DC0832F7B2F9E2F09C034
:1014D0008E2F7B2F952F05C08E2F732F02C07E2F4E
:1014E000852F692FDF91CF911F910F91FF90EF9082
:1014F000089541E00E94E909089520E030E0869FC8
:10150000212D969F200D311D1124C9010895BC0184
:101510008230910508F40895613E8EE1780748F421
:101520009B0195E0369527959A95E1F748E0420FA3
:1015300001C04FEF91E0242F30E0290F311D359588
:101540002795229FF001239FF00DF00D11246E17B7
:101550007F0718F44FEF420F04C02F3F39F091E09E
:10156000920F491740F78FEF890F08958FEF089575
:10157000482F982F46FD9095E92FEF739F7046FDF9
:101580009F5FE295EF70EE0FF0E0EE5CFD4F218182
:10159000299F802D212D112482958F702295207FE7
:1015A000822B3081982F930F892F47FD819580588A
:1015B0000895E42FF0E0EE0FFF1FEC5CFE4F40813A
:1015C00034EE439F412D1124E72FF0E050E0445EBC
:1015D0005F4FDA01A21BB1099D01B7FF03C031952E
:1015E0002195310993E0220F331F9A95E1F7AF015E
:1015F000421B530B9A0157FF02C020E030E0279FA7
:10160000212D1124722F0895E42FF0E0EE0FFF1F1B
:10161000EC5CFE4F408134EE439F412D1124E82FB6
:10162000F0E050E0445E5F4FDA01A21BB1099D017A
:10163000B7FF03C031952195310993E0220F331F85
:101640009A95E1F7AF01421B530B9A0157FF02C075
:1016500020E030E0582F259F212D1124822F08955E
:10166000622F0895E42FF0E0EE0FFF1FEC5CFE4FB9
:101670006081621B0895E42FF0E0EE0FFF1FEC5F26
:10168000FE4F61A9621B0895A22F50E0FA01EE0FF0
:10169000FF1FEC5FFE4F91A9905297FD9195440F6B
:1016A000551FFA01EC5CFE4F3081232F30E02A1BDE
:1016B0003109290F311D97FD3A95620F0895EF9278
:1016C0000F931F9393E0099F8001112415950795AF
:1016D0006E2D600F1F910F91EF9008950F93CF9390
:1016E000DF93D72FC82F47FD4195E8E3F0E0CF0106
:1016F000841B910947FD9395889FB001899F700DC8
:10170000700D1124229FC001239F900D900D112474
:10171000860F971F0E94870A682F660F860F682F13
:10172000600F7D2F8C2FDF91CF910F9108950F9334
:101730001F93522F10E0F801EE0FFF1FEC5FFE4FDA
:10174000E1A9F0E0B0979F015203D001539FB00D83
:101750001124000F111FF801EC5CFE4F008110E016
:101760000057110940039001419F300D11242A0FA9
:101770003B1F37FF02C021583F4F220F232F221F4C
:10178000330B620F1F910F9108950F931F93522FE8
:1017900010E0F801EE0FFF1FEC5FFE4FE1A9F0E053
:1017A000B097EE0FFF1F9F015203D001539FB00D62
:1017B0001124000F111FF801EC5CFE4F008110E0B6
:1017C00000571109000F111F40039001419F300D78
:1017D00011242A0F3B1F37FF02C021583F4F220F11
:1017E000232F221F330B620F1F910F9108950F9328
:1017F0001F9310E0F801EE0FFF1FEC5CFE4F90818D
:10180000905797FD9195000F111FF801EC5FFE4F67
:10181000E1A9F0E0B097DF01AA0FBB1F8D010E0F09
:101820001F1F2003D001219FB00D1124E8E3F0E039
:10183000E91BF10997FDF3959F01220F331F8901E1
:101840000E0F1F1F40039001419F300D11242A0FDE
:101850003B1F37FF02C021583F4F220F232F221F6B
:10186000330B620F1F910F9108954095282F429FCF
:10187000412D1124842F089522E8241B08F420E030
:10188000620F0895EF92FF920F93970195E0099FE1
:10189000200D311D11242F3F310519F010F02FEFCD
:1018A00030E02095382F320F08F43FEF832F0F914F
:1018B000FF90EF900895EF92FF920F93E00EF11CCE
:1018C000F90137FF03C0F195E195F10924E0EE0F2E
:1018D000FF1F2A95E1F7EF3FF10519F014F0EFEF44
:1018E000F0E09A0157FF03C031952195310994E04A
:1018F000220F331F9A95E1F72E173F070CF4F901D9
:10190000EE0DFF1DEF3FF10519F010F0EFEFF0E0E5
:101910002E2F2095382F320F08F43FEF832F0F9191
:10192000FF90EF900895EF92FF920F93972F093455
:1019300038F4B701601B71096F3F710519F010F0A1
:101940006FEF70E0485F5F4F4131510540F0A901F2
:10195000485F5F4F4131510510F06FEF70E06095C7
:10196000482F460F08F44FEF842F37FF02C02D5F3A
:101970003F4F359527953595279560915703620F11
:10198000792F0F91FF90EF900895EF92FF920F93B0
:101990009701201B31092F3F310519F010F02FEF6F
:1019A00030E0322F3095482F430F08F44FEF842F4B
:1019B000620F0F91FF90EF900895EF92FF920F93B7
:1019C0009701201B31092F3F310519F010F02FEF3F
:1019D00030E02095382F320F08F43FEF832F0F911E
:1019E000FF90EF900895FC019B01009721F477FF91
:1019F0002BC080E80895AC0197FF04C04427552709
:101A0000481B590BB901640F751F37FD0CC0241B0F
:101A1000350BC901A5E0880F991FAA95E1F70E942F
:101A2000572F80E20CC0CB0165E0880F991F6A95A3
:101A3000E1F7BA01621B730B0E94572F80E6861BE9
:101A4000F7FF03C08195089580E00895FF920F93FA
:101A50001F93CF93DF93F62E172FD82FC901C72FCF
:101A6000C01BBA010E94F30C982F990F890F7C2F8D
:101A7000781B719F712D11246F2D8D2FDF91CF91C8
:101A80001F910F91FF900895FF920F931F93CF9393
:101A9000DF93F62ED72F182FC901C12FC01BBA0113
:101AA0000E94F30C982F990F890FC81B2C2F219F90
:101AB000212D1124822F6F2D7D2FDF91CF911F912A
:101AC0000F91FF900895EF920F931F93CF93DF93A1
:101AD000D62F172FC82FC9010E19070FBA010E9460
:101AE000F30C702F781B719F712D11246D2F8C2F8B
:101AF000DF91CF911F910F91EF900895EF920F9387
:101B00001F93CF93DF93D62FC72F182FC9010E191C
:101B1000010FBA010E94F30C081B202F219F212DD9
:101B20001124822F6D2F7C2FDF91CF911F910F9168
:101B3000EF9008950F93CF93DF93D72FC82FC9014C
:101B4000BA010E94F30C682F600F7D2F8C2FDF915C
:101B5000CF910F910895EF920F93CF93DF93D72FEB
:101B6000C82FC9010E19BA010E94F30C602F681B1F
:101B70007D2F8C2FDF91CF910F91EF9008950E94D0
:101B8000790A089545E050E06CE170E086E593E065
:101B90000C94173045E050E06CE170E086E593E08E
:101BA0000C943530E6E5F3E085E380838091EE0127
:101BB0009091EF01A091F00181839283A3838FE73D
:101BC00084830C94CA0D80E008950F931F93CF93E4
:101BD000DF93C82FD62F8A010E94E30D9CE0C99F96
:101BE000F0011124EC5FFE4FED0FF11D90819F3F3E
:101BF00029F0F801E80FF11D90838F5FDF91CF91FD
:101C00001F910F910895E0914002F09141020994D3
:101C1000E0913C02F0913D0209944F925F926F92E5
:101C20007F928F929F92AF92BF92CF92DF92EF926C
:101C30000F931F93CF93DF932C013B01FC01C081D5
:101C40008BE0C89FC02D1124DBE0DC0FD63308F0F9
:101C5000D5E360915A03669580915B0390915C0394
:101C60000E947D0A182FCD1708F044C08C2E912CAD
:101C7000F401E256FE4F9081F20181818923C1F186
:101C8000F401EE0FFF1FEC5CFE4FC080D12CF0E79B
:101C9000CF1AD108F401EE0FFF1FEC5FFE4FA1A891
:101CA000B12C80E2A81AB108CC9C9001CD9C300DDB
:101CB000300D1124AA9CC001AB9C900D900D1124F5
:101CC000820F931F0E94870A082F6091570370911B
:101CD000580380915903E12E9501A601F30109955E
:101CE0000E94BF0D462F282F672FC4010E94080EA7
:101CF000CF5FB9CF81E0D53308F080E0DF91CF919D
:101D00001F910F91EF90DF90CF90BF90AF909F9079
:101D10008F907F906F905F904F90089563E67DE085
:101D20000C940D0E6EE77DE00C940D0E6FE57BE0DC
:101D30000C940D0E6BEA7DE00C940D0EAF92BF92E9
:101D4000CF92DF92EF92FF920F931F93CF93DF9387
:101D50006C015B01FC01C0818BE0C89FC02D112488
:101D6000DBE0DC0FD63308F0D5E360915A036695CB
:101D700080915B0390915C030E947D0A182FCD1720
:101D800078F5EC2EF12CF701E256FE4F9081F6012A
:101D90008181892319F1F701EE0FFF1FEC5FFE4FE0
:101DA00021A930E020523109F701EE0FFF1FEC5C52
:101DB000FE4F408150E040575109609157037091A8
:101DC000580380915903012FF50109950E94BF0D19
:101DD000462F282F672FC7010E94080ECF5FCFCF55
:101DE00081E0D53308F080E0DF91CF911F910F9112
:101DF000FF90EF90DF90CF90BF90AF90089566E294
:101E00007DE00C949E0E64E47DE00C949E0E6EE6E4
:101E10007BE00C949E0E6AE97DE00C949E0EBF92CE
:101E2000CF92DF92EF92FF920F931F93CF93DF93A6
:101E30008C017B01FC01C0818BE0C89FC02D112467
:101E4000DBE0DC0FD63308F0D5E360915A036695EA
:101E5000669580915B0390915C030E947D0AB82E89
:101E6000CD17F0F4CC2ED12CF601E256FE4F908126
:101E7000F8018181892391F0609157037091580393
:101E8000809159032B2D4C2FF70109950E94BF0D0E
:101E9000462F282F672FC6010E94080ECF5FE0CF84
:101EA00081E0D53308F080E0DF91CF911F910F9151
:101EB000FF90EF90DF90CF90BF90089569ED7AE0AA
:101EC0000C940F0F64E07BE00C940F0F60E37BE059
:101ED0000C940F0F62E37BE00C940F0F6BE37BE03D
:101EE0000C940F0F64E47BE00C940F0F7F928F92A1
:101EF0009F92AF92BF92CF92DF92EF92FF920F9399
:101F00001F93CF93DF936C015B01FC01C0818BE0D9
:101F1000C89FC02D1124DBE0DC0FD63308F0D5E3D9
:101F200060915A036695669580915B0390915C037E
:101F30000E947D0A182F80E4810F0E94B80A90E861
:101F4000F92EF80E812F0E94B80A20E8722E780E22
:101F5000CD1700F58C2E912CF401E256FE4F9081A6
:101F6000F60181818923A1F0609157037091580394
:101F700080915903E12E0C2F272D4F2DF501099546
:101F80000E94BF0D462F282F672FC4010E94080E04
:101F9000CF5FDECF81E0D53308F080E0DF91CF91D5
:101FA0001F910F91FF90EF90DF90CF90BF90AF9077
:101FB0009F908F907F90089567E97BE00C94760F57
:101FC00065EC7BE00C94760F67EF7BE00C94760F6A
:101FD000AF92BF92CF92DF92EF92FF920F931F9337
:101FE000CF93DF937C015B01FC01C0818BE0C89F34
:101FF000C02D1124DBE0DC0FD63308F0D5E32091AF
:102000005A0330E040E050E06FEF7FEF80E090E077
:102010000E946B2F8901CD17E8F5CC2ED12CF6014B
:10202000E256FE4F9081F7018181892389F19091D9
:102030005F03915097FD15C0292F092E000C330B1B
:10204000F901E15AFC4F8189C813F3CF220F331FE6
:10205000F901E15AFC4F218D328D2017310748F7E5
:1020600001C0980160915A03C9010E947D0AAC0128
:10207000609157037091580380915903F5010995B8
:102080000E94BF0D462F282F672FC6010E94080E01
:10209000CF5FC1CF81E0D53308F080E0DF91CF91F1
:1020A0001F910F91FF90EF90DF90CF90BF90AF9076
:1020B000089565E37CE00C94E80F6CE37CE00C94FD
:1020C000E80F2F923F924F925F926F927F928F9282
:1020D0009F92AF92BF92CF92DF92EF92FF920F93B7
:1020E0001F93CF93DF93CDB7DEB729970FB6F89440
:1020F000DEBF0FBECDBF8B834B013A01DB011C91CC
:102100008BE0189F102D1124BBE0B10FB983B633BB
:1021100010F0E5E3E983F0915F03FA8389811817F2
:1021200008F07BC0A12EB12CF501E256FE4F908144
:10213000D40111968C91892309F46DC02090570326
:10214000309058034B80512CC501880F991FFC011A
:10215000EC5CFE4FFD83EC83C501880F991F9C0149
:102160002B5C3E4F3F832E83FA814F1608F043C00D
:10217000E42CF12CAC81BD81BC91EB2FF0E0F98710
:10218000E887F701E15AFC4F818128853985281BB2
:10219000310939872887AE81BF81CC90D12C8185C8
:1021A000C81AD108F901EE9F9001EF9F300D300D54
:1021B0001124CC9CC001CD9C900D900D1124820F58
:1021C000931F0E94870A082FF701EE0FFF1FE15AA5
:1021D000FC4F60915A03818D928D0E947D0A7C0193
:1021E000960148855985B101852DF30109951B019B
:1021F0004394582EB9CF20915903352D329F312D5C
:102200001124832FB1010E94BF0D462F282F672F65
:10221000C5010E94080E1F5F81CF81E0998195332F
:1022200008F080E029960FB6F894DEBF0FBECDBF50
:10223000DF91CF911F910F91FF90EF90DF90CF90A2
:10224000BF90AF909F908F907F906F905F904F90D6
:102250003F902F90089520915F0331E0231B08F4F5
:1022600020E042E45CE0BC01822F0C94611042E467
:102270005CE0BC0180E00C94611020915F0331E0D0
:10228000231B08F420E04BE55CE0BC01822F0C949A
:1022900061104BE55CE0BC0180E00C946110209182
:1022A0005F0331E0231B08F420E043E95CE0BC015C
:1022B000822F0C94611043E95CE0BC0180E00C9437
:1022C000611020915F0331E0231B08F420E045EC0E
:1022D0005CE0BC01822F0C94611045EC5CE0BC0119
:1022E00080E00C94611020915F0331E0231B08F41F
:1022F00020E04DED5CE0BC01822F0C9461104DEDAF
:102300005CE0BC0180E00C946110DF92EF92FF92E0
:102310000F931F93CF93DF938C01DC018C91CBE063
:102320008C9FC02D1124DBE0DC0FD63308F0D5E301
:102330006091570370915803809159030E94BF0D1B
:10234000F62EE72ED82ECD1798F4EC2FF0E0DF0113
:10235000A256BE4F8C91D80111969C91982331F0D2
:102360002D2D4F2D6E2DCF010E94080ECF5FEBCF8C
:1023700081E0D53308F080E0DF91CF911F910F917C
:10238000FF90EF90DF900895AF92BF92CF92DF92CF
:10239000EF92FF920F931F93CF93DF938C01FC0179
:1023A000C0818BE0C89FC02D1124DBE0DC0FD63349
:1023B00008F0D5E3E0905803F0905903D09057030C
:1023C0006D2D7E2D8F2D0E94BF0DC62EB72EA82EEF
:1023D00060915A036D0D7E2D8F2D0E94BF0DF62E3C
:1023E000E72ED82ECD17B8F48C2F90E0FC01E256E2
:1023F000FE4F3081F8012181232359F030FF04C0C2
:102400002D2D4F2D6E2D03C02A2D4C2D6B2D0E948E
:10241000080ECF5FE7CF81E0D53308F080E0DF9191
:10242000CF911F910F91FF90EF90DF90CF90BF90D1
:10243000AF900895BF92CF92DF92EF92FF920F93E9
:102440001F93CF93DF936C01FC01C0818BE0C89F89
:10245000C02D1124DBE0DC0FD63308F0D5E300916A
:102460005803B090590320915A0310E4129F112D84
:102470001124CD1718F5EC2EF12CF701E256FE4F82
:102480009081F60181818923B9F0F701EE0FFF1FDA
:10249000EC5FFE4F81A982958F7060915703819FF9
:1024A000600D1124702F8B2D0E94BF0D462F282FF9
:1024B000672FC7010E94080ECF5FDBCF81E0D533C5
:1024C00008F080E0DF91CF911F910F91FF90EF9086
:1024D000DF90CF90BF900895BF92CF92DF92EF929E
:1024E000FF920F931F93CF93DF937C01FC01C08178
:1024F0008BE0C89FC02D1124DBE0DC0FD63308F041
:10250000D5E3C0905803B090590320915A0330E4AA
:10251000D32E3D2D329F312D1124D32ECD1738F5DA
:102520000C2F10E0F801E256FE4F9081F7018181F7
:102530008923D9F0F801EE0FFF1FEC5CFE4F60819C
:10254000D69EB001112495E0759567959A95E1F7AF
:1025500080915703680F7C2D8B2D0E94BF0D462F55
:10256000282F672FC8010E94080ECF5FD7CF81E0C8
:10257000D53308F080E0DF91CF911F910F91FF904C
:10258000EF90DF90CF90BF900895DF92EF92FF928F
:102590000F931F93CF93DF938C01DC01CC918BE0E1
:1025A000C89FC02D1124DBE0DC0FD63308F0D5E343
:1025B000E0905703F0905803D090590360915A036C
:1025C00066956695669580915B0390915C030E9489
:1025D0007D0A0E94B80A805887FD8195880F282FB0
:1025E0003D2D239F212D1124822FB7010E94BF0D65
:1025F000F62EE72ED82ECD1798F4EC2FF0E0DF0161
:10260000A256BE4F8C91D80111969C91982331F01F
:102610002D2D4F2D6E2DCF010E94080ECF5FEBCFD9
:1026200081E0D53308F080E0DF91CF911F910F91C9
:10263000FF90EF90DF900895DF92EF92FF920F935B
:102640001F93CF93DF93EC01FC01E256FE4F908184
:10265000692381F1D09058030091590310915703D9
:10266000E12EF12C0E94FE2F282FC7018C549F4F82
:1026700068E671E00E94572F8E199F0997FD039617
:1026800095958795959587952370612F289F600D67
:1026900011247D2D802F0E94BF0D462F282F672FDC
:1026A000CE01DF91CF911F910F91FF90EF90DF90BE
:1026B0000C94080EDF91CF911F910F91FF90EF9036
:1026C000DF900895CF92DF92FF920F931F93CF93E5
:1026D000DF938C01FC01C281C1111DC060915A03BE
:1026E00020E1620F08F46FEF80915B0390915C032F
:1026F0000E947D0A6AE070E00E94432F892B59F501
:102700000E94FE2F65E370E00E94572FF80161815F
:102710000E941C1320C0FC018081CBE08C9FC02D47
:1027200011249BE0F92EFC0EF5E3FF1510F485E370
:10273000F82ED0E0CF2CD12CCC15DD053CF4F801DF
:102740006181CE010E941C132196F6CFC1E0F4E313
:10275000FF1508F4C0E08C2FDF91CF911F910F91EE
:10276000FF90DF90CF9008951F93CF93DF93FC01EC
:10277000E256FE4F20816223A9F0EC010E94FE2F59
:10278000182F0E94FE2F612F782F809159030E94ED
:10279000BF0D462F282F672FCE01DF91CF911F91BC
:1027A0000C94080EDF91CF911F910895CF92DF9284
:1027B000FF920F931F93CF93DF938C01FC01C28193
:1027C000C1111DC060915A0320E1620F08F46FEF40
:1027D00080915B0390915C030E947D0A65E070E04C
:1027E0000E94432F892B59F50E94FE2F65E370E06C
:1027F0000E94572FF80161810E94B41320C0FC0190
:102800008081CBE08C9FC02D11249BE0F92EFC0E23
:10281000F5E3FF1510F485E3F82ED0E0CF2CD12C92
:10282000CC15DD053CF4F8016181CE010E94B413A2
:102830002196F6CFC1E0F4E3FF1508F4C0E08C2F39
:10284000DF91CF911F910F91FF90DF90CF9008956E
:10285000E0913E02F0913F020994CF92DF92EF9215
:10286000FF920F931F93CF93DF93CDB7DEB72897D7
:102870000FB6F894DEBF0FBECDBF182F062FF42E73
:102880000E94D21A882309F46DC0FF2049F0AE01DE
:102890004F5F5F4F602F812F0E94E50DF82E01C022
:1028A000F12CE09086020F2D10E0C8018E0D911DD5
:1028B000099764F188E090E06C01C01AD10AB80170
:1028C00069577D4FA60187E892E00E940E30B8015B
:1028D00061577D4FA6018FE892E00E940E30A6015D
:1028E000440F551FB801660F771F61567D4F8FE962
:1028F00092E00E940E30B80169567D4FA60187E92B
:1029000092E00E940E30EA94E092860210918602D4
:10291000DE01119640E0842F810FF41609F190E05A
:102920005D91252F30E0BC016A577D4FF901EE0F14
:10293000FF1FEC5CFE4F0081FB010183220F331F60
:10294000F901EC5FFE4F21A9FB012187518B880F14
:10295000991FFC01EA57FD4F128E118E4F5FDBCF9E
:102960008093860228960FB6F894DEBF0FBECDBFC7
:10297000DF91CF911F910F91FF90EF90DF90CF905B
:10298000089508950C94C1140E94C2140C94C114AB
:1029900008950C94C814CF93DF93FC01C081C150FB
:1029A0008BE0C89FC02D1124DBE0DC0FD63308F08C
:1029B000D5E36D2F8C2F0E94C9146D2F8C2FDF91C2
:1029C000CF910C94C8144F925F926F927F928F9226
:1029D0009F92AF92BF92CF92DF92EF92FF92CF93EE
:1029E0006091AF027091B0028091B1029091B202F9
:1029F0000E94E2276B017C010E94C7274B015C010A
:102A00006093AF027093B0028093B1029093B202D0
:102A1000A0918602E6E8F2E08A2F90E04FEF5FEFA8
:102A200060E070E04C195D096E097F09A91799F003
:102A3000218D328D2901612C712C441555056605B7
:102A4000770510F4815004C02C0D3D1D328F218F6D
:102A50009F5F3296EBCF8093860280915603982F2A
:102A6000937021F0C82FC695C69501C0C0E0909123
:102A7000DB019130E9F038F0923009F419C193305C
:102A800009F424C134C11092DC0180925B0390925E
:102A90005C03A0925D03B0925E0389E2E6E8F2E097
:102AA000AFE5B3E001900D928A95E1F781E008C1AE
:102AB0009091DF01C9130CC0837090E04091E00158
:102AC00050E021E08417950709F420E0822F01C02F
:102AD00081E081708093DE014C2F50E0453251053A
:102AE00008F0C2C0FA01EA5AFF4F0C948A2F8823DB
:102AF00009F4BAC040E060E080E00E942814B4C04D
:102B00008CED91E00E948511B0C08CED91E00E94A7
:102B1000C411ABC08CED91E00E941A12A6C08CEDDE
:102B200091E00E946C12A1C08CED91E00E94C51250
:102B30009CC08CED91E00E945E0F97C08CED91E0FF
:102B40000E94620F92C08CED91E00E94FF0E8DC03A
:102B50008CED91E00E94030F88C08CED91E00E9403
:102B60008E0E83C08CED91E00E94920E7EC08CEDA3
:102B700091E00E94660F79C08CED91E00E946A0F8F
:102B800074C08CED91E00E946E0F6FC08CED91E0EF
:102B90000E94720F6AC08CED91E00E94960E65C093
:102BA0008CED91E00E94070F60C08CED91E00E94D7
:102BB0000B0F5BC08CED91E00E949A0E56C08CED1D
:102BC00091E00E94DC0F51C08CED91E00E94E00F7B
:102BD0004CC08CED91E00E94E40F47C08CED91E079
:102BE0000E94621342C08CED91E00E94D6133DC05A
:102BF0008CED91E00E94591038C08CED91E00E945C
:102C00005D1033C08CED91E00E942B112EC08CED35
:102C100091E00E94371129C08CED91E00E943D1196
:102C200024C08CED91E00E9449111FC08CED91E011
:102C30000E944F111AC08CED91E00E945B1115C0EB
:102C40008CED91E00E94611110C08CED91E00E942A
:102C50006D110BC08CED91E00E94731106C08CEDDC
:102C600091E00E947F1101C080E09091DC019F5FA4
:102C70009093DC01811127C082E08093DB01809179
:102C8000DE01811120C0CC23D1F00E94C4148CED50
:102C900091E0CF91FF90EF90DF90CF90BF90AF90F9
:102CA0009F908F907F906F905F904F900C94CB147B
:102CB000C093DF0183708093E0010E94030E83E0E4
:102CC0008093DB0114C0CC2391F0DFCF60915B03D4
:102CD00070915C0380915D0390915E030E94E227F6
:102CE000603171058105910510F01092DB01CF91E3
:102CF000FF90EF90DF90CF90BF90AF909F908F901C
:102D00007F906F905F904F900895E0913A02F0911C
:102D10003B02099510925F03E8E7F3E08FEF9FEF26
:102D20008193919323E0E838F207D1F7109286025D
:102D3000EFE9F2E08FEF9FEF8193919322E0EF3A7A
:102D4000F207D1F70E943826811104C00E94DF26C5
:102D50000E94D20D0E94C20D809156038C7F11F407
:102D60000C94D20D08952091560391E092279093F0
:102D700056031092DB0181110C94CA0D089581E075
:102D80000C94B31690915603937091F0811102C088
:102D9000946007C0853210F0906903C0880F880FD7
:102DA000982B909356031092DB0161110C94CA0D7D
:102DB000089561E00C94C216682F90915603969581
:102DC00096959F5F953210F4892F01C081E00C9495
:102DD000C21681E00C94DC16682F909156039695EC
:102DE0009695915011F0892F01C084E20C94C2167F
:102DF00081E00C94EC1690915603937049F0809307
:102E00005703609358034093590321110C94CA0D42
:102E10000895A6E5B3E01196EC911197F0E0282F04
:102E200013964C91139712966C91CF0108960C94BF
:102E3000FB1681E00C940917A6E5B3E01196EC911E
:102E40001197F0E0282F13964C91139712966C91DE
:102E5000CF0108970C94FB1681E00C941C17E6E553
:102E6000F3E0628120E1620F08F46FEF9181282F77
:102E70004381892F90E00C94FB1681E00C942F176E
:102E8000E6E5F3E0628120E1621B08F460E09181F5
:102E9000282F4381892F90E00C94FB1681E00C943D
:102EA0004017E6E5F3E0438120E1420F08F44FEFDD
:102EB0009181282F6281892F90E00C94FB1681E08C
:102EC0000C945117E6E5F3E0438120E1421B08F43E
:102ED00040E09181282F6281892F90E00C94FB16AD
:102EE00081E00C94621720915A0330E1230F08F41B
:102EF0002FEF20935A0381110C94CA0D089581E09D
:102F00000C94731720915A0330E1231B08F420E03E
:102F100020935A0381110C94CA0D089581E00C94FA
:102F200082170895FC01EE0FFF1F8E0F9F1FFC01FB
:102F3000E857FC4F6183408322830895E8E8F3E07B
:102F400094E0E732F90729F0818360834283339666
:102F5000F7CF089565E370E088E893E00C941618C5
:102F6000882311F0FA0101C0FB0109940F931F930C
:102F7000CF93FB01C281CC2309F450C08C010E9485
:102F80007F258272F801E35CFC45E431F10508F02D
:102F900048C0E558FF4F0C948A2F0E94BF1640C0CE
:102FA00048EF56E169EE76E104C049EE56E168EF7C
:102FB00076E10E94B01734C04CE257E169E177E155
:102FC000F8CF49E157E16CE277E1F3CF4EE457E106
:102FD0006DE377E1EECF4DE357E16EE477E1E9CFC2
:102FE00040E757E16FE577E1E4CF4FE557E160E770
:102FF00077E1DFCF4EE857E16FE777E1DACF4FE7D0
:1030000057E16EE877E1D5CF81E005C085E003C0E8
:103010008DE001C082E10E94D91602C0C1E001C06A
:10302000C0E08C2FCF911F910F9108956A9A2EB115
:103030002B7F3EB134604FB7F894FC01CB01880F71
:10304000991F680F791F6E0F7F1FE617F70789F02A
:10305000819198E03EB9000000C087FF2EB9880F2B
:10306000000000C000C000C02EB900C09A9591F7C2
:10307000ECCF4FBF8FE594E00197F1F700C000005F
:1030800008950F931F93CF93DF93C42FD22FFC018A
:1030900082818823C9F04093B5020E94BB27909398
:1030A000B4028093B30280E28C0F883008F057C0DE
:1030B000C77081E001C0880FCA95EAF7DF91CF9110
:1030C0001F910F910C94261D8091B502481330C0BA
:1030D0008091B3029091B4020E94D327883C91055D
:1030E00038F510E21D0FCD17B9F080E28C0F883053
:1030F00040F4C77081E001C0880FCA95EAF70E94CA
:103100002D1D183028F581E09D2F977001C0880F84
:103110009A95EAF70E94261D802F0E941D1D1830E7
:10312000F0F4D77081E001C0880FDA95EAF70AC0A1
:1031300080E28C0F883098F4C77081E001C0880F5E
:10314000CA95EAF7DF91CF911F910F910C942D1D35
:10315000802FDF91CF911F910F910C941D1DDF9156
:10316000CF911F910F9108950F939C01CB01243FA4
:103170004CE5340731F188F4293DFCE53F07D9F0EF
:103180002A3D4CE5340779F1283D3C45A9F506E296
:1031900021EE41EE68ED7CE52BC0263FFCE53F07C4
:1031A000E1F0A8F0273F3C4539F507E225EE46EE71
:1031B00067EF7CE51DC007E225EE45EE69ED7CE595
:1031C00017C006E221EE40EE64EF7CE511C007E295
:1031D00025EE44EE65EF7CE50BC006E221EE42EE03
:1031E00066EF7CE505C008E221E045EE6AED7CE58E
:1031F0000E94411880E008C0FC018281882319F0F8
:103200001092B50201C081E00F910895CF93DF9332
:10321000EC01FB018281882309F41FC1C230FCE567
:10322000DF0708F41BC1C6319CE5D90738F09E01C1
:103230002B5F3C452930310508F010C10E944B2618
:1032400090932C0480932B04C031ECE5DE0709F445
:10325000C3C008F041C0C8308CE5D80709F49AC053
:10326000F0F4C430ECE5DE0709F487C068F4C2303E
:103270008CE5D80709F477C0C330DC4509F0E3C01A
:1032800080912B04826076C0C630ECE5DE0709F43D
:103290006EC008F07BC080912B0488606BC0CC307E
:1032A0008CE5D80709F485C068F4CA30ECE5DE0780
:1032B00009F474C008F079C00E94B31F80912B04F8
:1032C000806858C0CE308CE5D80709F476C008F085
:1032D0007FC080912B048BC0CC3FECE5DE0709F466
:1032E0004FC018F5C3318CE5D80709F47DC078F4D8
:1032F000C131ECE5DE0709F473C0C231DC4509F0E9
:10330000A2C00E94B31F80912B048F7733C0C531B8
:103310008CE5D80709F472C008F486C0CB3FDC45C1
:1033200009F091C080912C043EC0C115FDE5DF0776
:1033300009F45FC058F4CE3F9CE5D90709F444C0B6
:1033400008F43FC080912C0482602DC0C230FDE59E
:10335000DF0709F475C008F45DC0C330DD4509F02E
:1033600072C080E06EC080912B04816003C08091A8
:103370002B04806180932B0466C080912B0411C0C4
:1033800080912C04826080932C045DC080912B047A
:103390008062F0CF80912B048064ECCF80912B046D
:1033A00088608460E7CF8160EECF80912B048E7FB0
:1033B000E1CF80912B048D7FDDCF80912B04877F1F
:1033C000D9CF80912C0418C080912C048D7FDBCF45
:1033D00080912B048F7ECECF80912B048F7DCACF1E
:1033E00080912B048F7BC6CF80912B04877F8B7FAE
:1033F000C1CF80912C048D7F8E7FC5CF80912B040F
:1034000082FB222720F991E0922790FB82F990FB22
:1034100083F9B0CF80912C04982F909591708E7F76
:10342000892B90FB81F9AFCF0E94B31F80912B04B1
:1034300087FB222720F991E0922790FB87F99ACF0A
:1034400081E00E94E12680912B0490912C040E943F
:103450005C260E94B31F80E001C081E0DF91CF9124
:103460000895CF93DF9386319C4541F5EB010E948F
:103470007F25982F8A812091E1013091E2018823F4
:1034800079F09A7A81E009F480E08093B602911194
:1034900002C069E201C065E3C9010E9428270AC091
:1034A0008091B602811102C069E201C065E3C901E1
:1034B0000E942A270E94CD2580E001C081E0DF9193
:1034C000CF9108959093BC028093BB020895E09140
:1034D000BB02F091BC02309721F00190F081E02D09
:1034E000099480E00895E091BB02F091BC0230970E
:1034F00021F00280F381E02D09940895E091BB0250
:10350000F091BC02309739F022E0DC012C9304806A
:10351000F581E02D099408952091B9023091BA0205
:103520002817390771F09093BA028093B902E0919D
:10353000BB02F091BC02309721F00680F781E02DAC
:10354000099408952091B7023091B80228173907DD
:1035500071F09093B8028093B702E091BB02F091B2
:10356000BC02309721F00084F185E02D0994089584
:103570000E94C7276093CA027093CB028093CC024B
:103580009093CD026093C6027093C7028093C802E5
:103590009093C902089585B7806885BF85B7806814
:1035A00085BF089581E008950C94D21A08950C9473
:1035B000D61A0C94D61A0C94D91A0C94D61A0C94C8
:1035C000DD1A0C94D61A0E94CB1A80E396E20E9470
:1035D00048280E94E11A0C94DF1A0E94B2270E9428
:1035E00045060E9463280C94DB1A6F927F928F929B
:1035F0009F92AF92BF92CF92DF92EF92FF920F9382
:103600001F93CF93DF93CDB7DEB72A970FB6F89409
:10361000DEBF0FBECDBF0E94D71A0E94D61A0E94ED
:10362000880681110E94B81A3EEB832E32E0932E59
:1036300000E010E0E02E802F0E9413065C01F401F0
:10364000619071904F016826792661147104B1F47C
:103650000F5F1F4F0430110569F78FEF89838A834D
:103660001B820E94BB278160782F9D838C834981B8
:103670005A816B818D810E94BA1B43C080913A03AD
:1036800081FD0E941C06F12CCC24C394D12CC301D3
:103690008C219D21892B71F10E94D41AAC20BD2070
:1036A0008823A1F0FE82EF8281E0A114B10409F425
:1036B00080E088870E94BB278160782F9A8789875E
:1036C0004E815F8168858A850E94BA1B000F111F99
:1036D000F801E254FD4F80819181C826D926D1821C
:1036E000C08241E0AB2809F440E06F2D8E2D0E948E
:1036F0002D1407C0F394CC0CDD1CFCE0FF12C7CFE7
:10370000A7CF0E94E3140E94C8080E94671A9091F4
:10371000BD028917D1F00E94671A8093BD022A96D4
:103720000FB6F894DEBF0FBECDBFDF91CF911F91D2
:103730000F91FF90EF90DF90CF90BF90AF909F9050
:103740008F907F906F900C94FC032A960FB6F8949C
:10375000DEBF0FBECDBFDF91CF911F910F91FF90C4
:10376000EF90DF90CF90BF90AF909F908F907F9021
:103770006F900895DF92EF92FF920F931F93CF9374
:10378000DF93CDB7DEB72B970FB6F894DEBF0FBE31
:10379000CDBFF42E052F162FE72ED82E61110E94D3
:1037A0009F25FE01319686E0DF011D928A95E9F79B
:1037B0007E2D4F2D502F612F8D2D9E810E946C22CA
:1037C0002B960FB6F894DEBF0FBECDBFDF91CF9121
:1037D0001F910F91FF90EF90DF900895FC01808181
:1037E00091810E9440250895CF93882309F4A4C0B5
:1037F000C82F8238C1F40E94671A81FD9DC069E319
:103800008091E1019091E2010E9428270E94CD253C
:103810002FEF81EE94E0215080409040E1F700C00E
:10382000000069E319C0833801F50E94671A80FD22
:1038300083C063E58091E1019091E2010E94282715
:103840000E94CD252FEF81EE94E0215080409040E2
:10385000E1F700C0000063E58091E1019091E20191
:103860000E942A27CF910C94CD258438C1F40E9460
:10387000671A82FD61C067E48091E1019091E201E5
:103880000E9428270E94CD252FEF81EE94E0215041
:1038900080409040E1F700C0000067E4DDCF8CEF8E
:1038A0008C0F813AD0F46C2F8091E1019091E2016C
:1038B0000E94F226882349F06C2F8091E1019091BB
:1038C000E2010E942A270E94CD256C2F8091E10100
:1038D0009091E2010E942827C5CF80E28C0F8830AA
:1038E00048F4C77081E001C0880FCA95EAF70E94CA
:1038F0008225B8CFEBE5EC0FE33040F4F0E0E0597F
:10390000FD4F808190E0CF910C948C1AE8E5EC0F8C
:10391000E73150F4F0E0EE0FFF1FEE5BFD4F8081CA
:103920009181CF910C94A21ACD3E30F08C2F0E9441
:10393000D807CF910C94AA08CF910895882309F451
:1039400064C0823879F40E94671A81FF5EC069E31F
:103950008091E1019091E2010E9428270E94CD25EB
:1039600069E310C08338B1F40E94671A80FF4DC02C
:1039700063E58091E1019091E2010E9428270E9475
:10398000CD2563E58091E1019091E2010E942A2713
:103990000C94CD25843879F40E94671A82FF35C0D3
:1039A00067E48091E1019091E2010E9428270E9442
:1039B000CD2567E4E7CF9CEF980F913A10F4682F7C
:1039C000E1CF90E2980F983050F4877091E001C0F9
:1039D000990F8A95EAF7892F0E948825D9CF9BE510
:1039E000980F933020F480E090E00C948C1A98E5C6
:1039F000980F973120F480E090E00C94A21A8D3E4D
:103A000020F00E9433080C94AA0808951F93CF93C6
:103A1000DF93182FEB010E94F41B209741F08FE9F0
:103A20009FE00197F1F700C000002197F6CF812FAA
:103A3000DF91CF911F910C949E1C893319F060E0A7
:103A400070E002C060E570E00C94061D882321F050
:103A50000E9482250C94CD250895882321F00E9490
:103A600088250C94CD250895CF92DF92EF92FF9296
:103A70000F931F93CF93DF937C01062FC72FFC0179
:103A8000D281158112951F700E947825882399F0A4
:103A9000DD2389F08C2F807F803421F080E2800F3D
:103AA000883048F082E00E9417260E94782591E035
:103AB000D82ED92601C0D12CCC2EC2948FE0C8229A
:103AC0008C2D90E0FC01E157FF4F0C948A2F8C2F36
:103AD000807FCF70882311F0C295C07FDD2399F0DD
:103AE000CC2309F48DC180E2800F883010F00111E1
:103AF00004C08C2F0E94822503C08C2F0E94922527
:103B00000E94CD257DC1802F0E949E1CCC2309F4EC
:103B10009CC180E2800F883010F0011104C08C2F0E
:103B20000E94882503C08C2F0E9498250E94CD25D5
:103B30008CC18C2F807FCF70803211F0C295C07FF6
:103B4000002319F00130C9F022C0DD2371F01123E8
:103B500041F0113031F40E94B2258C2B0E94BA251D
:103B600074C10E94B2258C2B1DC0112319F0113095
:103B700009F46BC10E94C32525C0DD2321F0163056
:103B800008F063C10EC0153008F05FC11BC0DD2313
:103B900061F0112331F0F701858180FF31C18F7011
:103BA00085838C2F0E94261D50C1112359F00933A3
:103BB00009F037C1FFEF27EE83E0F150204080404D
:103BC000E1F72DC18C2F0E942D1D3FC18C2F8695B2
:103BD0008695837019F0813061F037C1DD2321F0C3
:103BE000802F9C2F937002C080E090E00E948C1A7E
:103BF00034C1DD2321F0802F9C2F937002C080E020
:103C000090E00E94A21A29C1802FDD2319F00E94A2
:103C1000D80702C00E9433080E94AA081EC18C2F38
:103C2000837009F045C0D11114C1402F42954695CB
:103C30004770440F440F602F6F70862F90E0A0E014
:103C4000B0E0042E04C0880F991FAA1FBB1F0A945E
:103C5000D2F704FF10C00FE010E020E030E004C015
:103C6000000F111F221F331F4A95D2F700951095A0
:103C70002095309503C000E010E09801C695C695E8
:103C8000C370BC01CD01602B712B822B932BC230F2
:103C900049F058F4C13019F00E94BD23DAC00E94E7
:103CA000AB23D7C00E94CF23D4C00E94A923D1C088
:103CB000DD2319F08C2F817001C08695882309F4CB
:103CC000C8C0402F429546954770440F440F602F5F
:103CD0006F70862F90E0A0E0B0E0042E04C0880F43
:103CE000991FAA1FBB1F0A94D2F704FF10C00FE050
:103CF00010E020E030E004C0000F111F221F331F2E
:103D00004A95D2F7009510952095309503C000E0B4
:103D100010E09801C695C695C370BC01CD01602B1B
:103D2000712B822B932BC23049F058F4C13019F01B
:103D30000E9482248EC00E9470248BC00E94942412
:103D400088C00E94E32385C0CF70DD2339F08C2F1B
:103D50000E940924802F0E94261D7BC0802F0E9474
:103D60002D1D8C2F0E942A2474C0023F01F128F4DB
:103D7000003F41F0013FA1F03FC0033FF9F0043F95
:103D800039F13AC0DD2341F0153008F05EC08C2FC8
:103D90008F710E944F2459C0163008F056C0F7CFDB
:103DA000DD2339F08C2F8F710E9409244EC0DD2352
:103DB000C9F38C2F8F710E942A2447C0DD2329F07C
:103DC0008C2F8F710E94F42340C00E94EF233DC0CE
:103DD000DD2349F0CF718C2F0E94092463E08C2FE2
:103DE0000E94022632C081E00E941726123068F13C
:103DF00082E00E94172629C0DD2331F0112391F2C1
:103E0000802F0E94F41B21C0112399F2093349F439
:103E10009FEFE7EEF3E09150E040F040E1F700C0A3
:103E20000000802F0E949E1C10C04C2F4F70602FEE
:103E3000C7010E9405040E941A230FC04C2F4F7027
:103E4000602FC7010E94080408C088EF8C0D8430E1
:103E500020F40E94671A0E94FC03DD20C9F00E9432
:103E6000742580FD15C0F70112820E946E250E9404
:103E70000924C7010E94691F0E946E25DF91CF911E
:103E80001F910F91FF90EF90DF90CF900C942A2418
:103E9000DF91CF911F910F91FF90EF90DF90CF9026
:103EA00008950F931F93CF93DF93EC01688179817D
:103EB0008A810E944B258C010E94A6240E94972390
:103EC000B801CE010E94341DDF91CF911F910F9157
:103ED0000895CF93DF93EC01988189812B813C81F8
:103EE000232B31F08F3F31F481E09F3F19F403C061
:103EF00081E001C080E080FD19C0CE010E94B203C4
:103F000081110CC00E947825882381F08A81882342
:103F100069F082E0DF91CF910C941726CE010E94C8
:103F2000511FCE01DF91CF910C948903DF91CF9186
:103F3000089580E090E00E948C1A80E090E00E945A
:103F4000A21A0E949F250E94AF250E94CD250E94A3
:103F5000DB090C94AA088091E1019091E2010E9492
:103F60002C270C94991F0E948F250C94AB1FE92FCE
:103F7000E295EF704E2F50E0FA013297EE30F105E6
:103F8000B0F4E156FF4F0C948A2F803F91F018F463
:103F9000883E68F40EC0843F51F40BC0883E48F060
:103FA000813F29F406C093FB882780F9089580E0BB
:103FB000089581E008950E9440250E94B71F08954A
:103FC000CF93DF9300D000D01F92CDB7DEB70F9014
:103FD0000F900F900F900F90DF91CF910895CF9396
:103FE000DF9300D000D000D0CDB7DEB726960FB655
:103FF000F894DEBF0FBECDBFDF91CF9108951F9320
:10400000CF93DF93C091CF0216E08091D002C81702
:1040100099F0D0E01C9FF0011D9FF00D1124EF528C
:10402000FD4F4081518162817381848195810E941D
:10403000EF1F2196C770E9CFDF91CF911F910895AF
:1040400040910103509102036091030370910403B6
:1040500080910503909106030C94EF1F0F931F931B
:10406000CF93DF938091060382958F7009F05DC036
:1040700080910303882309F458C08091CF021091E6
:10408000D0026091010370910203C0910403D091AA
:10409000050391E06F3F09F090E0292F06E08117BA
:1040A00009F443C0209721F07F3F21F030E003C0A6
:1040B00031E001C0322F90E030FD34C0089FF001A4
:1040C000099FF00D1124DF01AF52BD4F11963C91B5
:1040D0001197371327C03C91361324C012963C9198
:1040E000129731111FC013964D915C9114974C1B80
:1040F0005D0B483C5105B0F4809106038F708061E0
:1041000080930603EA52FD4F80818F708061808327
:1041100081E093E00E94691FDF91CF911F910F9181
:104120000C94FF1F01968770BACFDF91CF911F913A
:104130000F9108959F92AF92BF92CF92DF92EF922C
:10414000FF920F931F93CF93DF93CDB7DEB76197A5
:104150000FB6F894DEBF0FBECDBF8C0185E0F8012D
:10416000DE011D9601900D928A95E1F7F8014081DC
:104170005181E28090910103609102032091040338
:10418000309105032115310531F06F3F31F481E0A5
:104190009F3F19F403C081E001C080E0F82FF17067
:1041A0009F2E80FD46C1F801A380B48081E0C82E17
:1041B00083E0D82EF0900303F501E21BF30BFF2000
:1041C00009F4DFC080910603E83CF10508F09BC0CC
:1041D000282F207F09F052C0561313C0491311C075
:1041E000FE2CE1100EC08F708061809306030E9448
:1041F0002020C6010E94691F80910603F801858373
:1042000058C1AB2831F05F3F31F481E04F3F19F4E2
:1042100003C081E001C080E080FD03C081E08E2505
:1042200002C080E090E0F82FF170FF2E80FF1CC0EC
:104230008091CF022091D00236E0821709F417C195
:1042400090E0389FF001399FF00D1124EF52FD4F9F
:104250006181561306C06081461303C06281E61275
:1042600003C001968770E9CFFE2CEE2009F421C12E
:10427000809106038160809306035AC0561306C0DE
:10428000491304C0E11002C0F8019FC04D875E874A
:104290008D859E850E94DB1F882379F1EE2069F1D0
:1042A00020910603822F82958F7090E0029774F020
:1042B000809101039091020398878F831986BB86B2
:1042C000AA862C87CE0107960E94691F86E0F80116
:1042D000A1E0B3E001900D928A95E1F70E942E20B3
:1042E0000E9420200DC0561729F14D875E878D85CD
:1042F0009E850E94DB1F81112CC0C8010E94691F8E
:10430000FF24F394D6C0282F207F69F77A2DB98A2D
:10431000A88A6E2D89890E94E01F81E093E00E94A7
:10432000691F86E0F60111928A95E9F70E94202024
:10433000F12CBFC04913D9CFE110D7CFF801858345
:10434000C8010E94691F86E0F60111928A95E9F77B
:10435000B0C0EE2091F220910603822F82958F70DB
:1043600090E002970CF4B2CF809101039091020388
:104370009A8389831B82BD82AC822E83CE010196F3
:10438000A3CFE83CF10508F047C0FE2CEE2009F46D
:10439000B4CF561330C049132EC02091060320FD20
:1043A00021C0822F82958F70482F50E04115510512
:1043B000C9F0F80125834F30510541F08F5F982FE8
:1043C0009295907F822F8F70892B8583C8010E94E0
:1043D000691F86E0F801A1E0B3E001900D928A9593
:1043E000E1F742C086E0F801A1E0B3E001900D9250
:1043F0008A95E1F75EC04D875E878D859E850E9418
:10440000DB1F811163CF80910603816080930603D7
:10441000C8010E94691F4DC07A2DB98AA88A6E2DE5
:1044200089890E94E01F86E0F60111928A95E9F7DA
:104430001BC0EE2009F461CF4D875E878D859E8578
:104440000E94DB1FF82E882309F457CF86E0F8017D
:10445000A1E0B3E001900D928A95E1F781E093E04D
:104460000E94EE1B0E942E200E94202022C04D8719
:104470005E878D859E850E944025292F22952F706D
:10448000223028F49F7039F0811105C00BC0243010
:1044900028F49F7049F4805E883020F0C8010E94A3
:1044A000691F9F2CF92C05C0F8019581907F99F721
:1044B000F9CF8F2D61960FB6F894DEBF0FBECDBF3A
:1044C000DF91CF911F910F91FF90EF90DF90CF90F0
:1044D000BF90AF909F9008951F93CF93DF93CDB778
:1044E000DEB72C970FB6F894DEBF0FBECDBF4F835B
:1044F000588769877A878B879C87CE0107960E94A9
:104500009A208823D1F09F8188852A853B85232B9B
:1045100031F08F3F31F481E09F3F19F403C081E017
:1045200001C080E080FD47C04F81588569857A854C
:104530008B859C850E94EF1F3EC086E0FE0137966A
:10454000DE01119601900D928A95E1F7FF81E885D1
:104550006A857B856115710531F0EF3F31F481E0AB
:10456000FF3F19F403C081E001C080E080FD23C05B
:104570002091D00230E0C9010196877099274091BF
:10458000CF0250E084179507F1F1F983EA837D8328
:104590006C8396E0929FD001939FB00D1124AF528F
:1045A000BD4FFE01319601900D929A95E1F78093EF
:1045B000D0020E94FF1F16E08091CF029091D0029E
:1045C000891771F1189FC00111248F529D4F0E94CD
:1045D0009A20882329F1E091CF021E9FF001112437
:1045E000EF52FD4F408151816281738184819581B9
:1045F0000E94EF1F8091CF0290E00196877099276B
:104600008093CF02D9CF0E94B31F1092D002109294
:10461000CF02E1E0F3E086E0DF011D928A95E9F741
:104620002C960FB6F894DEBF0FBECDBFDF91CF91B1
:104630001F910895EF92FF920F931F93CF93DF93F3
:104640008C01892B09F46CC0F12CEE24E394E80171
:104650002196F8018491843740F4843008F051C0E9
:10466000813081F0823019F15BC0853709F444C094
:10467000A8F19CE7980F903708F052C08F770E94FE
:104680009E1C41C00E5F1F4FFE01849190E2980F67
:10469000983050F48770FE2D01C0FF0F8A95EAF71D
:1046A0008F2F0E94A22514C00E94F41B2DC00E5F04
:1046B0001F4FFE01849190E2980F983060F487704C
:1046C000FE2D01C0FF0F8A95EAF78F2F0E94A825C3
:1046D0000E94CD2519C00E949E1C16C00E5F1F4F60
:1046E000FE01C491CC2381F08FE99FE00197F1F79F
:1046F00000C00000C150F6CF0E5F1F4FFE01F490C6
:1047000003C00E94F41B8E018F2D882309F49FCFD4
:10471000EFE9FFE03197F1F700C000008150F5CFDD
:10472000DF91CF911F910F91FF90EF900895089521
:1047300008950C9498230C9499230E949B236093D2
:10474000290370932A0380932B0390932C030C94DA
:10475000991F0C949D230F931F930091290310918F
:104760002A0320912B0330912C03602B712B822B79
:10477000932B1F910F910C949D230F931F930091E6
:10478000290310912A0320912B0330912C036023DD
:104790007123822393231F910F910C949D230F93D8
:1047A0001F930091290310912A0320912B0330912C
:1047B0002C0360277127822793271F910F910C9458
:1047C0009D230C9498230E94E1236093250370930A
:1047D000260380932703909328030C94991F60E08D
:1047E00070E0CB010C94E3230F931F9341E050E062
:1047F00060E070E08A019B0104C0000F111F221FBE
:10480000331F8A95D2F7C901B8011F910F910C94FB
:10481000E3230F931F9341E050E060E070E004C099
:10482000440F551F661F771F8A95D2F78091250385
:1048300090912603A0912703B09128038A019B0140
:10484000082B192B2A2B3B2BC901B8011F910F9163
:104850000C94E3230F931F9341E050E060E070E07D
:1048600004C0440F551F661F771F8A95D2F74095E5
:104870005095609570958091250390912603A091A5
:104880002703B09128038A019B01082319232A23B7
:104890003B23C901B8011F910F910C94E3230F939F
:1048A0001F9341E050E060E070E004C0440F551FEA
:1048B000661F771F8A95D2F7809125039091260372
:1048C000A0912703B09128038A019B01082719278B
:1048D0002A273B27C901B8011F910F910C94E323AC
:1048E0000F931F9300912503109126032091270316
:1048F00030912803602B712B822B932B1F910F91EA
:104900000C94E3230F931F9300912503109126032A
:10491000209127033091280360237123822393235E
:104920001F910F910C94E3230F931F930091250384
:1049300010912603209127033091280360277127C7
:10494000822793271F910F910C94E32308952CE065
:10495000929F800D1124E82FE695E695E6958770E5
:1049600051E001C0550F8A95EAF785E0E89FF00114
:104970001124E95FFC4F20E030E070E04081CB0182
:10498000022E02C0969587950A94E2F78170819570
:1049900084278523842781932F5F3F4F253031055E
:1049A00069F708952CE0929F800D1124682F669579
:1049B00066956695982F977085E0689FB0011124E1
:1049C00040E050E080E0FB01E40FF51FE95FFC4FA1
:1049D000208130E0092E02C0369527950A94E2F72F
:1049E00021703327042E01C0220F0A94EAF7822B8C
:1049F0004F5F5F4F4530510531F70895BF92CF9219
:104A0000DF92EF92FF920F931F93CF93DF938C016E
:104A1000C0902503D0902603E0902703F090280350
:104A20008091290390912A03A0912B03B0912C032C
:104A3000C82AD92AEA2AFB2ACFE1D0E0D701C60149
:104A40000C2E04C0B695A795979587950A94D2F732
:104A500080FD04C0219790F7B12C07C0BC2EB8018F
:104A60008C2F0E9424040197A9F38B2DDF91CF9105
:104A70001F910F91FF90EF90DF90CF90BF9008951E
:104A8000CF93DF93EC010E94FE24BE010E94240418
:104A9000DF91CF9108951F93CF93DF93EB01909116
:104AA000CE02992321F0CB010E94402513C0882318
:104AB00049F0CB010E94FE24182F682FCE010E94DE
:104AC000A72404C0CB010E94D224182FBE01812F3D
:104AD0000E942404DF91CF911F91089580912D03AE
:104AE000859585958595089580912D038770089506
:104AF00090912D03977081E009F480E008958091F2
:104B00003903089590913903892B809339030895CF
:104B100080959091390389238093390308951092E9
:104B20003903089590913803892B809338030895B1
:104B300080959091380389238093380308951092CB
:104B40003803089590913703892B80933703089594
:104B500080959091370389238093370308951092AD
:104B60003703089580912E03089508950C94B52578
:104B70000C94B62590912E03981721F080932E0364
:104B80000C94B825089580912E03882329F0109263
:104B90002E0380E00C94B8250895E091E101F09196
:104BA000E201809139038083E091E101F091E2011B
:104BB000908180913803892B8083E091E101F0910D
:104BC000E201908180913703892B808380912E03AD
:104BD000882381F0E091E101F091E2019081892B3D
:104BE00080838091E1019091E2010E94E62681118B
:104BF0000E94C3258091E1019091E2010C94731A07
:104C00000C94B52598E0899F90011124262B2093C0
:104C10002D030E94092480912D0385958595859506
:104C20000C94002610922D0380E00C940026209115
:104C30002D038095822380932D03982F977079F40C
:104C400030E0482F082E000C550B2417350739F09B
:104C50008595859585950E942A240C9412260895A1
:104C600080E008956FEF7FEF80E090E00C94633078
:104C700080E090E00E942F3021E08B3E9E4F09F0B3
:104C800020E0822F089582E090E00C94273083E0AA
:104C900090E00C942730CF9384E090E00E9427307E
:104CA000C82F81E290E00E9427302C2F30E0A9012C
:104CB000582BCA01CF910895CF93C92F682F84E054
:104CC00090E00E9445306C2F81E290E0CF910C94EF
:104CD0004530AB01BC018FE090E00C945730AB0144
:104CE000BC0183E190E00C94573060E070E0CB01B0
:104CF0000C946F2660E070E0CB010E9469260C9452
:104D000075266BEE7EEF80E090E00E94633060E0FD
:104D100082E090E00E94453060E083E090E00E94F5
:104D200045301092290310922A0310922B031092FF
:104D30002C0360E084E090E00E94453060E081E276
:104D400090E00E94453060E085E090E00E944530B0
:104D500060E086E090E00E9445306FEF87E090E0F1
:104D60000E94453040E050E0BA0188E090E00E94A7
:104D7000573060E08DE090E00E94453040E050E028
:104D8000BA0188E190E00E94573060E087E190E04E
:104D90000E94453040E050E0BA018CE190E00E9472
:104DA000573060E080E290E00E94453040E050E003
:104DB000BA0188E190E00E9457300C947A260C9456
:104DC0008126682F8EE090E00C944530FC013296ED
:104DD00097E080E0915029F021912223D9F38F5F51
:104DE000F9CF0895662349F0FC0132960896219187
:104DF000621729F0E817F907D1F780E0089581E0FC
:104E000008959C01FC0132969FEF80E04191461786
:104E100089F09F3F19F4411101C0982F8F5F8630B0
:104E2000A9F79F3F39F0F901E90FF11D97FDFA95B8
:104E30006283089508959C012A5F3F4FFC014281DF
:104E4000461301C01282019682179307B9F708959D
:104E50000C9401270C941B27029626E0FC0111926A
:104E60002A95E9F7089508950C9433270C94332775
:104E7000CF930E9436270E9488060E943427C0E004
:104E80008C2F0E941306892B29F4CF5FC430C1F701
:104E900080E001C081E0CF9108950C9433270C94F9
:104EA0004D2780913104843049F10E944F2780E0E2
:104EB0000E94FC0310923B0320E488E190E00FB6CF
:104EC000F894A895809360000FBE2093600083B78C
:104ED000817F846083BF83B7816083BF7894889526
:104EE00083B78E7F83BF0FB6F894A895809160003A
:104EF000886180936000109260000FBE08950C944A
:104F000033270E94B31F0E94671A0E94FC030C946F
:104F10007F271F920F920FB60F9211248F939F93AA
:104F2000AF93BF9380913B03811113C080912704FD
:104F300090912804A0912904B0912A044196A11DC2
:104F4000B11D8093270490932804A0932904B09363
:104F50002A04BF91AF919F918F910F900FBE0F9038
:104F60001F90189582E084BD93E095BD9AEF97BDA0
:104F700080936E0008952FB7F89480912704909144
:104F80002804A0912904B0912A042FBF08952FB7B7
:104F9000F8946091270470912804809129049091DD
:104FA0002A042FBF08959C014FB7F89480912704DD
:104FB00090912804A0912904B0912A044FBF821B2C
:104FC000930B0895CF92DF92EF92FF922FB7F89450
:104FD000C0902704D0902804E0902904F0902A047F
:104FE0002FBFA7019601261B370B480B590BCA018F
:104FF000B901FF90EF90DF90CF90089578941F92C1
:105000000F920FB60F9211248F939F93AF93BF937C
:105010008091270490912804A0912904B0912A043A
:105020000196A11DB11D8093270490932804A0939D
:105030002904B0932A04BF91AF919F918F910F9053
:105040000FBE0F901F90189581E08093E00080E2E2
:105050008093D8001092C9008FE19EE40197F1F788
:1050600000C0000087E090EBDC0180933A0490934D
:105070003B04A0933C04B0933D049CE088E10FB650
:10508000F894A895809360000FBE90936000FFCFC6
:10509000909375028093740208950C9432260E94B6
:1050A00088068FE39CE90197F1F700C000000E9499
:1050B000880680E00E94130680FF04C00E944D28ED
:1050C0000C94242808950E943826811102C00E9461
:1050D000DF260E94432680933A030E944B2690933A
:1050E0002C0480932B040E944726682F70E080E0F8
:1050F00090E00E94A923609125037091260380917E
:105100002703909128030C94E12380914403089590
:10511000CF93DF9300D01F92CDB7DEB790913104CB
:10512000943019F589837B836A8382E08093E90058
:105130008FEF9091E800815095FD06C095ED9A950E
:10514000F1F700008111F5CF8091E80085FF0DC0D7
:1051500040E050E063E070E0CE0101960E94A52A95
:105160008091E8008E778093E8000F900F900F9069
:10517000DF91CF910895BC0184E00C948828BC0194
:1051800083E00C94882822E02093E9002FEF3091EF
:10519000E800215035FD06C035ED3A95F1F70000E5
:1051A0002111F5CF2091E80025FF0BC040E050E031
:1051B00066E070E00E94A52A8091E8008E778093D7
:1051C000E8000895CF93DF9321E02093E9002FEFCB
:1051D0003091E800215035FD06C035ED3A95F1F7E4
:1051E00000002111F5CF2091E80025FF14C0EC014B
:1051F00040E050E068E070E00E94A52A8091E8005D
:105200008E778093E80088E0FE01ACE3B3E0019084
:105210000D928A95E1F7DF91CF9108958091300446
:10522000811109C00E94362C0E94932C8091E200CB
:1052300084608093E20008951092300408950895E8
:105240000895089542E061EC81E00E94AF2B42E2B4
:1052500061EC82E00C94AF2B80913304833009F42D
:1052600060C030F4813071F0823009F499C0089543
:105270008A3009F485C08B3009F46BC0893009F09D
:10528000A7C020C080913204813A09F0A1C080916A
:10529000E800877F8093E80080913604909137047E
:1052A000892B21F468E08CE393E003C060E080E0A8
:1052B00090E070E00E94F02A8091E8008B77809364
:1052C000E800089580913204813209F081C0809114
:1052D000360490913704029708F07AC08091E80074
:1052E000877F8093E8008091E80082FD05C080916F
:1052F00031048111F8CF6CC02091F3008091F2004D
:1053000090E0922B029729F48091F1008B7F8130FD
:1053100021F48091F100809344038091E8008B7721
:1053200053C080913204813A09F052C08091360412
:1053300090913704892B09F04BC08091E800877F5A
:105340008093E8008091E80080FFFCCF8091ED0120
:1053500036C0809132048132D9F580913604909123
:105360003704892BA9F58091E800877F8093E800B6
:105370000E94E42B809134048093ED010C94B31FC0
:1053800080913204813221F58091E800877F8093FB
:10539000E8000E94E42B8091350480934503089532
:1053A00080913204813AA1F48091E800877F809354
:1053B000E8008091E80080FFFCCF80914503809356
:1053C000F1008091E8008E778093E8000C94E42B44
:1053D000089584B7877F84BF0FB6F894A89580910D
:1053E0006000886180936000109260000FBE90E0C2
:1053F00080E80FB6F89480936100909361000FBE2F
:105400000E94E31A0E94362C0E94932C8091E200A5
:1054100084608093E20078940E94282F0E94ED1A05
:1054200083EE91E00E94621A809131048530A9F4E4
:1054300080913104853079F40E94512780912F04A6
:105440008823B1F30E943827882391F30E948F2A82
:105450000E94B31FEDCF0E9481270E94F51A0E947F
:10546000D71A0E94D61AE0CF0C94362A292F332758
:1054700023303105C9F060F42130310581F022304C
:10548000310509F044C08BE390E02EEE34E043C0D8
:1054900021323105E1F02232310549F138C082E193
:1054A00090E029E235E037C099278130910549F035
:1054B00028F0029761F5EEEAF4E005C0EAEEF4E0C8
:1054C00002C0E2EDF4E0849190E09F0124C06115F8
:1054D000710541F061307105D1F489E090E029E176
:1054E00035E019C089E090E020E035E014C0611596
:1054F000710541F06130710551F48BE790E02BE3C9
:1055000035E009C080E490E026EB35E004C080E09F
:1055100090E020E030E0FA0131832083089580E1BB
:1055200089BD82E189BD09B400FEFDCF8091D8001C
:105530008F7D8093D8008091E00082608093E000AE
:105540008091E00081FDFCCF0895CF92DF92EF9231
:10555000FF920F931F93CF93DF93EC018B017A019E
:105560000E94032C811133C0E114F10439F0F701DA
:1055700080819181081B190BC80FD91FC12CD12C18
:105580000115110519F18091E80085FD16C0809183
:10559000E8008E778093E800E114F10449F0F70108
:1055A00080819181C80ED91ED182C08285E00FC052
:1055B0000E94032C882321F30AC089918093F10073
:1055C00001501109FFEFCF1ADF0ADACF80E0DF9137
:1055D000CF911F910F91FF90EF90DF90CF900895A2
:1055E00020913804309139042617370748F06115A7
:1055F000710539F42091E8002E772093E80001C06E
:10560000B901FC0120E06115710579F18091310447
:105610008823F1F18530F1F18091E80083FD3CC0F1
:105620008091E80082FD2EC08091E80080FFEBCFE2
:105630002091F3008091F20090E0922B61157105AA
:1056400051F08830910538F421912093F100615098
:1056500071090196F3CF21E0089709F020E08091CD
:10566000E8008E778093E800CECF2111CFCF0AC01B
:1056700080913104882361F0853061F08091E800E9
:1056800083FD0AC08091E80082FFF2CF80E0089598
:1056900082E0089583E0089581E008952091380420
:1056A000309139042617370748F06115710539F430
:1056B0002091E8002E772093E80001C0B901FC0199
:1056C00020E06115710591F180913104882309F47E
:1056D00040C0853009F43FC08091E80083FD3DC0A3
:1056E0008091E80082FD2FC08091E80080FFE9CF23
:1056F0002091F3008091F20090E0922B61157105EA
:1057000059F08830910540F424912093F1003196AE
:10571000615071090196F2CF21E0089709F020E06D
:105720008091E8008E778093E800CBCF2111CCCF19
:105730000AC080913104882361F0853061F0809146
:10574000E80083FD0AC08091E80082FFF2CF80E08C
:10575000089582E0089583E0089581E00895982FE8
:10576000973068F59093E900981739F07091EC0044
:105770002091ED005091F00003C0242F762F50E0CF
:1057800021FD02C09F5FECCF3091EB003E7F309354
:10579000EB003091ED003D7F3093ED003091EB0058
:1057A00031603093EB007093EC002093ED00509348
:1057B000F0002091EE0027FDE5CF80E008958F7086
:1057C0008093E90081E008958091320487FF11C041
:1057D0008091E80082FD05C0809131048111F8CFED
:1057E00011C08091E8008B770BC080913104882331
:1057F00049F08091E80080FFF8CF8091E8008E7733
:105800008093E80008952091E4003091E50095E64A
:105810004091EC00842F817040FF23C08091E8000C
:1058200080FD1DC080913104882399F0853099F066
:105830008091EB0085FD11C04091E4005091E5009E
:105840002417350729F3915011F09A01E1CF84E034
:10585000089582E0089583E0089581E0089580E04E
:1058600008954091E80042FFDDCF08950E94A42CE6
:105870000E94AC2CE0EEF0E0808181608083E8ED56
:10588000F0E080818F77808319BCA7EDB0E08C9128
:105890008E7F8C9380818F7E808310923004089558
:1058A0000F931F93CF93DF930E94A42C0E94AC2CE4
:1058B000C8EDD0E088818F7788838881806888836D
:1058C00088818F7D888319BC1092310410922D0439
:1058D00010922F0410922E0400EE10E0F801808147
:1058E0008B7F808388818160888342E060E080E0F4
:1058F0000E94AF2BE1EEF0E080818E7F8083E2EEAC
:10590000F0E0808181608083808188608083F801FD
:1059100080818E7F8083888180618883DF91CF91B1
:105920001F910F910895E8EDF0E080818F7E8083D4
:10593000E7EDF0E080818160808384E082BF81E0D8
:10594000809330040C94502CE8EDF0E080818E7F41
:1059500080831092E20008951092DA001092E10024
:1059600008951F920F920FB60F9211242F933F9319
:105970004F935F936F937F938F939F93AF93BF9357
:10598000EF93FF938091E10082FF0BC08091E200D2
:1059900082FF07C08091E1008B7F8093E1000E942D
:1059A000272F8091DA0080FF1FC08091D80080FFF0
:1059B0001BC08091DA008E7F8093DA008091D9003D
:1059C00080FF0DC080E189BD82E189BD09B400FE80
:1059D000FDCF81E0809331040E940E2905C019BCDF
:1059E000109231040E941C298091E10080FF19C0AF
:1059F0008091E20080FF15C08091E2008E7F80934D
:105A0000E2008091E20080618093E2008091D80002
:105A100080628093D80019BC85E0809331040E9495
:105A200020298091E10084FF30C08091E20084FF52
:105A30002CC080E189BD82E189BD09B400FEFDCFA3
:105A40008091D8008F7D8093D8008091E1008F7E77
:105A50008093E1008091E2008F7E8093E20080914C
:105A6000E20081608093E20080912D04882311F090
:105A700084E007C08091E30087FD02C081E001C09F
:105A800083E0809331040E9421298091E10083FF0B
:105A900029C08091E20083FF25C08091E100877FCB
:105AA0008093E10082E08093310410922D04809174
:105AB000E1008E7F8093E1008091E2008E7F8093F1
:105AC000E2008091E20080618093E20042E060E0C9
:105AD00080E00E94AF2B8091F00088608093F000FE
