:100000000C94CE020C9415030C9415030C94150358
:100010000C9415030C9415030C9415030C94150300
:100020000C9415030C9415030C94412D0C94132E71
:100030000C9419280C9415030C9415030C941503B7
:100040000C9415030C9415030C9415030C941503D0
:100050000C9415030C948E280C9415030C94150322
:100060000C9415030C9415030C9415030C941503B0
:100070000C9415030C9415030C9415030C941503A0
:100080000C9415030C9415030C9415030C94150390
:100090000C9415030C9415030C9415030C94150380
:1000A0000C9415030C9415030C941503ED15F6151B
:1000B000FB15001605160A160F16141619161E162D
:1000C000231628162D16321637163C1641164616DC
:1000D0004B16501655165A165F16641669166E168C
:1000E000731678167D16821687168C16911696163C
:1000F0009B16A016A516AA16AF16B416611864189A
:100100006918701875187A187F18841889188E184D
:10011000931898189A189C189E18A418A418A41834
:10012000A418A418FB1DFB1D2D1E2D1E7A1E981E43
:10013000B91FB91FA31E381F491F491FA91FB91F87
:10014000B91FB21F592059206B206B2062206B20F1
:100150006B206B205920592067206B206B20672073
:10016000802EA72E9F2FA72E9F2FF32E162F9F2F67
:100170006D2F7C2F290014001A00080015001700AD
:100180001C0018000C00120013002A002B000400B1
:100190001600070009000A000B000D000E000F00FA
:1001A00033003400E1001D001B00060019000500AB
:1001B00011001000360037003800DA5C0351E0000F
:1001C000E300E20001512C000000025150005100F8
:1001D00052004F4335021E021F022002210222025A
:1001E000230224022502260227022A0001003A00E7
:1001F0003B003C003D003E003F002D002E002F0044
:100200003000310201004000410042004300440040
:1002100045002D022E022F023002280001000100AD
:100220000100010001000100000004514A004E00DD
:100230004B004D0035001E001F0020002100220051
:10024000230024002500260027002A0001003A0090
:100250003B003C003D003E003F002D002E002F00E3
:1002600030003100010040004100420043004400E2
:1002700045002D022E022F0230022800010001004D
:100280000100010004510100000001004A004E007D
:100290004B004D0000001E081F08200821082208FE
:1002A0002E022D002400250026004C000100000035
:1002B000160A00000000000025023800210022007C
:1002C00023002A00010000000000000000000000E0
:1002D00022022E001E001F00200028000100010045
:1002E000010001000100010000009000270037001C
:1002F000360001000000005C015C0000000000000E
:10030000000000000000A500A600A7000000C35CDC
:10031000C45CD65C00000000C65CCA5CC85CCC5CF7
:10032000000000000000C05CC15CC25C0000000076
:10033000C75CCB5CC95CCD5C000000000000000025
:1003400000000000010000000000010000000000AB
:100350000000000000010101010101010101020290
:100360000202020202020203030303030303030463
:10037000040404040404050505050506060606062E
:10038000070707070708080808090909090A0A0AE8
:100390000B0B0B0C0C0C0D0D0D0E0E0E0F0F0F108A
:1003A0001011111112121313141415151616171714
:1003B000181819191A1A1B1B1C1D1D1E1E1F202080
:1003C000212222232424252626272829292A2B2CCA
:1003D0002D2D2E2F30313232333435363738393AED
:1003E0003B3C3D3E3F404142434445464748494AE5
:1003F0004C4D4E4F50515354555658595A5B5D5EB3
:100400005F616264656668696B6C6D6F707273754D
:1004100077787A7B7D7E8082838587888A8C8E8FB1
:1004200091939596989A9C9EA0A2A3A5A7A9ABADDF
:10043000AFB1B3B5B7BABCBEC0C2C4C6C9CBCDCFCD
:10044000D1D4D6D8DBDDDFE2E4E7E9EBEEF0F3F57B
:10045000F8FAFDFF220342004D0034003000200076
:1004600048006F0074007300770061007000200086
:10047000520047004200000016034B00500052009B
:1004800065007000750062006C0069006300000088
:100490000403090409023B00020100A0FA09040058
:1004A00000010301010009211101000122400007A0
:1004B00005810308000A0904010001030000000986
:1004C0002111010001227B000705820320000A128E
:1004D00001100100000008504B30340100010200FF
:1004E0000105010902A10185020901A100050919FF
:1004F00001290815002501950875018102050109EA
:100500003009311581257F95027508810609381556
:1005100081257F950175088106050C0A3802158131
:10052000257F950175088106C0C005010980A101DC
:10053000850319012AB700150126B700950175102A
:100540008100C0050C0901A101850419012AA0023E
:10055000150126A002950175108100C0050109064C
:10056000A101050719E029E7150025019508750186
:1005700081029501750881010507190029FF150001
:1005800026FF0095067508810005081901290595C3
:100590000575019102950175039101C011241FBEDB
:1005A000CFEFDAE0DEBFCDBF04B603FE27C08091F7
:1005B0003B0490913C04A0913D04B0913E048730EF
:1005C000904BA740B04BD1F410923B0410923C04E6
:1005D00010923D0410923E0414BE84B7877F84BFFE
:1005E0000FB6F894A89580916000886180936000B0
:1005F000109260000FBEE0E0F8E3099512E0A0E081
:10060000B1E0EAE3F2E602C005900D92A437B1072B
:10061000D9F724E0A4E7B2E001C01D92AB33B207E2
:10062000E1F70E94792A0C941B310C94000081E0C0
:100630000E943A170C94E12780E00E943A170C942C
:10064000C72781E0089581E008950C94230308955D
:100650000C9427031F93CF93DF9300D000D01F92F9
:10066000CDB7DEB749835A836B833091CF0289813E
:100670009A81311114C0662359F0222349F00E9457
:100680009225182F682F89819A810E943B2503C0EB
:100690000E946625182F69817A81812F04C00E94EB
:1006A000922569817A810F900F900F900F900F9093
:1006B000DF91CF911F910C94E603FC01262F40811E
:1006C00051816281738184810C942A03CF93DF93DB
:1006D000EC0160E00E945D03BE01DF91CF910C94BC
:1006E00028030E94DF280E94CC26811102C00E94AC
:1006F00073270E940C170C9409060C9405060895A4
:100700000E9447200E947F032FEF84E39CE021504A
:1007100080409040E1F700C000000C94B4280F9393
:100720001F93CF93DF93EC0161E00E945D038C0186
:10073000BE010E942503882379F1BE01C8010E94F1
:100740004819882349F1BE01C8010E949A198823DB
:1007500019F1BE01C8010E94C51A8823E9F0BE0143
:10076000C8010E944A188823B9F08A81882369F059
:1007700001158CE5180731F00F3D1C4531F40E943E
:1007800073270AC00E94800307C0CE01DF91CF917A
:100790001F910F910C94210380E0DF91CF911F9165
:1007A0000F91089508950C94D20381E008950C945C
:1007B000D503CF93C82F0E94D3038C2F0E94D70359
:1007C000CF91089580E090E00895089520E3829FFE
:1007D000C0011124FC012CE0729FE00DF11D1124D9
:1007E000E60FF11DEE0FFF1FEC58FE4F859194911F
:1007F0000895880F991FFC01EC5AFC4F8591949144
:100800000895CF93DF930E94E6030E941905EC013F
:100810008115904508F041C0C11580E4D80708F063
:10082000D1C0C83ED10510F5C03ED10508F0FDC0CD
:10083000C83AD10578F4C53AD10508F0A2C0C13054
:10084000D10509F4F2C008F4EEC0C430D10508F0B7
:10085000ECC0E9C0CF3BD10508F49BC0C03CD1053A
:1008600008F4E1C0CE01805C91099EC0C11590E200
:10087000D90758F4C11521E0D20708F0D6C0CD3E03
:10088000D10508F4D0C0D065D0C0C11580E3D80729
:1008900008F08EC0CE019F7087C0C11595E5D907BD
:1008A00008F043C0C11524E5D20708F0A2C0C11565
:1008B00082E5D80708F5C11591E5D90708F085C08C
:1008C000CE0174E0969587957A95E1F783709C2F19
:1008D000937021E030E002C0220F331F9A95E2F7B7
:1008E0003C68382BCF70C695C69580E2C89FE00162
:1008F0001124C22BD32B99C09E01237033278C2F38
:1009000086958695C115D34508F064C0C1E0D0E056
:1009100002C0CC0FDD1F2A95E2F720E2829FC001C2
:100920001124C82BD92BDC6880C0C11529E5D2075A
:10093000A0F4C11588E5D80708F060C0C11596E598
:10094000D90708F070C08C2F0E94AD058F71C82F99
:10095000D0E0DC2FCC27D06268C0C1152AE5D207D1
:1009600008F451C0CE0190568115904208F05BC04A
:100970008D2F8F710E94AD05DD27D0628F71D82B2E
:1009800054C0C55AD0E0C15EDD4FC881D0E0D0640C
:100990004CC0C85AD0E0CC0FDD1FCF50DE4F0990BD
:1009A000D881C02DD46441C00E94F903EC013DC040
:1009B000CE019927D3FF03C0EC01D86C36C0EC01FF
:1009C000D06C33C0DF70D06A30C0DC2FCC27C16F51
:1009D000D06A2BC0C1E0D0E002C0CC0FDD1F2A9549
:1009E000E2F720E2829FC0011124C82BD92BDA68DC
:1009F0001CC0DC2FCC27C46FD06A17C0DC2FCC27DB
:100A0000C06FD06A12C08C2F8F700E94AD0594E029
:100A1000D695C7959A95E1F7CF70D0E0DC2FCC271B
:100A2000D069C82B02C0C0E0D0E0CE01DF91CF91E9
:100A300008958238910569F1B0F48133910509F484
:100A40006DC048F48932910509F463C08A3291057A
:100A500009F469C008958533910509F455C08933B7
:100A60009105B9F00895833E910569F138F4803E0F
:100A70009105B1F0823E910509F10895863E9105F8
:100A8000A9F1873E9105B9F1843E910509F064C052
:100A900023C020912C0420FD4FC021FD4DC008959E
:100AA00080912C0480FD44C080912D0480FF44C0BF
:100AB00080912C0484FD42C083EE4DC080912C04B3
:100AC00082FF38C0F5CF80912C0482FD33C0809125
:100AD0002D0480FD31C0ECCF80912D0481FF32C008
:100AE00080912C0484FD2AC087EE35C080912C04AF
:100AF00083FF26C0F5CF80912C0483FD21C0809117
:100B00002D0481FD1FC0ECCF80912C0485FD1CC0FD
:100B10001DC080912C0485FD19C016C080912C0445
:100B200086FD16C017C080912C0486FD13C010C02E
:100B300089E311C082EE0FC080EE0DC080E00BC0D3
:100B400086EE09C084EE07C089E205C085E303C0D4
:100B50008AE201C081E390E0089590912C0492FF15
:100B60000DC0282F2871283019F4877F846006C0B3
:100B7000282F2471243011F48B7F886093FF0DC0DF
:100B8000282F2871283119F4877E846106C0282F08
:100B90002471243111F48B7E886120912D0420FF73
:100BA0000DC0382F3871383019F4877F816006C046
:100BB000382F3171313011F48E7F886021FF0DC0E4
:100BC000282F2871283119F4877E816106C0282FCB
:100BD0002171213111F48E7E886194FD877E089504
:100BE000E82FF0E0EE0FFF1FE15BFC4F8081918169
:100BF0000895089580EA8A95F1F7089500C0089550
:100C00000C94FA0508950C9402060C9403060C94B7
:100C100002060C940706F894E82FE295EF70F0E0D6
:100C200031A1282F2F7081E090E001C0880F2A9514
:100C3000EAF7982F9095932391A392A1892B82A3F1
:100C4000789408950F931F93CF93DF9383E30E94CB
:100C50000B0682E30E940B0686EC0E940B0685E3DE
:100C60000E940B06C2E2D2E00EE212E089910E94DD
:100C70000B060C171D07D1F710924803109247037B
:100C80001092500310924F0310924A03109249039E
:100C9000109252031092510310924C0310924B0386
:100CA000109254031092530310924E0310924D036E
:100CB000109256031092550384E00E94F806DF91CB
:100CC000CF911F910F910C9471037F928F929F92FD
:100CD000AF92BF92CF92DF92EF92FF920F931F934A
:100CE000CF93DF9307E413E08EE2E82E82E0F82E44
:100CF000C0E0D0E0712CAA24A394B12C4701F701E5
:100D00008081F894E82FE295EF70F0E021A18F70D8
:100D1000A50102C0440F551F8A95E2F7CA01922F20
:100D2000982B91A392A18095892382A378940E9405
:100D3000FE05E2E2F2E020E030E0C12CD12C41914E
:100D4000A42FA295AF70B0E090968C9190E04F7078
:100D500002C0959587954A95E2F780FD08C0C501C8
:100D6000022E02C0880F991F0A94E2F702C080E0A9
:100D700090E0C82AD92A2F5F3F4F2C303105F9F671
:100D80005FEFE51AF50AF40180810E940B06C3307B
:100D9000D10511F00E940006F80180819181C816EA
:100DA000D90621F0D182C08281E001C080E0782A9A
:100DB00021960E5F1F4FC430D10509F09FCF272D1C
:100DC00044E06FE473E087E493E00E94F9060E9438
:100DD0007D03872DDF91CF911F910F91FF90EF90B1
:100DE000DF90CF90BF90AF909F908F907F900895AD
:100DF0000895FF920F931F93CF93DF93F82E092F3F
:100E0000162FD72FC42F222349F081E08093780238
:100E10000E944B289093770280937602809178020B
:100E20008823D9F080917602909177020E946328FE
:100E3000069798F0EF2DF02FA12FBD2F80E090E0C6
:100E40004C2F50E08417950734F4219131912D9364
:100E50003D930196F7CF10927802DF91CF911F91C9
:100E60000F91FF90089580917F0280FF0BC06091E9
:100E7000D80185E0689FB001112475956795759537
:100E800067952BC081FF09C06091D80185E0689FFC
:100E9000B00111247595679520C082FF07C060914D
:100EA000D80185E0689FB001112417C090917E029F
:100EB0009923D1F06091D701961788F72091D80136
:100EC00085E0289F90011124929FA001939F500DCF
:100ED000112470E0CA010E94E72F6038710540F4C8
:100EE0006115710519F406C065E070E0862F08955C
:100EF0008FE7089581E0089580917F0280FF08C008
:100F00006091D40170E0759567957595679521C0DE
:100F100081FF06C06091D40170E07595679519C096
:100F200082FF04C06091D40170E010C090917D02F6
:100F3000992399F06091D3019617A0F78091D4017D
:100F4000899FC001112470E00E94E72F603871056D
:100F500040F46115710519F406C061E070E0862F58
:100F600008958FE7089581E008958D3E21F40E9451
:100F70003307819504C08E3E29F40E943307809385
:100F8000830208958F3E21F40E943307819504C0A7
:100F9000803F29F40E943307809382020895893F9D
:100FA00019F40E947C0705C08A3F31F40E947C0737
:100FB00081958093840208958B3F21F40E947C07E1
:100FC000819504C08C3F29F40E947C0780938502A0
:100FD00008959FE0980F983078F421E030E0A9015F
:100FE00002C0440F551F9A95E2F7CA019091810201
:100FF000892B8093810208958D3F21F480917F0297
:1010000081600BC08E3F21F480917F02826005C019
:101010008F3F29F480917F02846080937F0208953E
:101020008D3E39F49091830297FF35C01092830270
:1010300059C08E3E29F4909183021916BCF32BC03F
:10104000909182028F3E29F497FF25C01092820270
:1010500049C0803F19F41916CCF31DC09091840249
:10106000893F29F41916BCF4109284023BC08A3FD0
:1010700019F497FF10C0F8CF8B3F39F49091850297
:1010800097FF09C0109285022DC08C3F21F49091EA
:1010900085021916BCF39FE0980F983080F421E088
:1010A00030E0A90102C0440F551F9A95E2F7CA012A
:1010B00080959091810289238093810213C08D3F96
:1010C00021F480917F028E7F0BC08E3F21F48091AE
:1010D0007F028D7F05C08F3F29F480917F028B7F37
:1010E00080937F0280918202811106C080918302E9
:1010F000811102C010927E0280918402811106C08B
:1011000080918502811102C010927D0208950E9493
:101110004B2820918202211104C0209183022223B6
:1011200021F090937C0280937B0220918402211114
:1011300004C020918502222321F090937A028093AB
:10114000790280E892E00C94121BEF92FF920F93C9
:101150001F93CF93DF9300D000D000D0CDB7DEB780
:1011600086E0E0E8F2E0DE01119601900D928A95AA
:10117000E1F7E0908202F0908302009184021091E6
:1011800085021092820210928302109284021092C1
:101190008502E11003C0FF2009F45DC080917B024D
:1011A00090917C020E946328AC0190917E02992369
:1011B00039F02091D90130E02417350758F04BC0A1
:1011C0002091DA018AE0289F900111242417350725
:1011D00018F041C09F3F19F09F5F90937E02EE2070
:1011E00061F00E9433071E1414F09FEF01C091E0DC
:1011F000989F902D112490938202FF2061F00E940D
:1012000033071F1414F09FEF01C091E0989F902DB9
:10121000112490938302309182023323E1F02091D4
:1012200083022223C1F045EB3403C001112499232A
:1012300019F09093820203C081E08093820235EB23
:101240002303C0011124992319F09093830203C052
:1012500081E080938302011103C0112309F45DC072
:101260008091790290917A020E946328AC0190915A
:101270007D02992339F02091D50130E024173507FC
:1012800058F04BC02091D6018AE0289F900111248C
:101290002417350718F041C09F3F19F09F5F9093C6
:1012A0007D02002361F00E947C07101614F09FEF6E
:1012B00001C091E0989F902D1124909384021123F6
:1012C00061F00E947C07111614F09FEF01C091E0BD
:1012D000989F902D1124909385023091840233239E
:1012E000E1F0209185022223C1F045EB3403C001D7
:1012F0001124992319F09093840203C081E0809314
:10130000840235EB2303C0011124992319F0909333
:10131000850203C081E08093850280918202811161
:101320000BC080918302811107C0809184028111DA
:1013300003C08091850281110E948708EB82FC82A4
:101340000D831E8386E0FE013196A0E8B2E0019095
:101350000D928A95E1F726960FB6F894DEBF0FBE80
:10136000CDBFDF91CF911F910F91FF90EF90089526
:10137000E0E8F2E086E0DF011D928A95E9F710923D
:101380007E0210927D0210927F020895EF92FF92EA
:101390000F931F93CF93DF938B01682F11110AC016
:1013A000442329F0E82FF0E0EC5AFC4F6491762FAB
:1013B000862F75C0212F30E0E82FF0E0442321F084
:1013C000EC5AFC4FE491F0E046E0049FC001112488
:1013D000CFEFD0E0BE010E94D32F4BEA4603C001FD
:1013E000479F900D1124800F911D800F911D982F04
:1013F000990F890FAE01421B530B4E9FD0014F9F97
:10140000B00D5E9FB00D11249B2F189FA0011124D9
:10141000452F55278E01041B150B0E9FA0010F9F12
:10142000500D1E9F500D11247E01E81AF108E29E16
:101430008001E39E100DF29E100D1124212F332701
:10144000C21BD30BCE9F9001CF9F300DDE9F300D7E
:10145000112462307105A9F048F46115710569F035
:1014600061307105C9F48B2F752F0DC06430710583
:1014700081F058F06630710579F47E2F8B2F932F11
:101480000DC0832F7B2F9E2F09C08E2F7B2F952F72
:1014900005C08E2F732F02C07E2F852F692FDF91FD
:1014A000CF911F910F91FF90EF90089541E00E941E
:1014B000C609089520E030E0869F212D969F200DDB
:1014C000311D1124C9010895BC018230910508F431
:1014D0000895613E8EE1780748F49B0195E03695CA
:1014E00027959A95E1F748E0420F01C04FEF91E050
:1014F000242F30E0290F311D35952795229FF001CB
:10150000239FF00DF00D11246E177F0718F44FEF95
:10151000420F04C02F3F39F091E0920F491740F776
:101520008FEF890F08958FEF0895482F982F46FD6C
:101530009095E92FEF739F7046FD9F5FE295EF70E6
:10154000EE0FF0E0EE5CFD4F2181299F802D212DD3
:10155000112482958F702295207F822B3081982FC5
:10156000930F892F47FD819580580895E42FF0E06F
:10157000EE0FFF1FEC5CFE4F408134EE439F412D88
:101580001124E72FF0E050E0445E5F4FDA01A21B28
:10159000B1099D01B7FF03C031952195310993E051
:1015A000220F331F9A95E1F7AF01421B530B9A01AB
:1015B00057FF02C020E030E0279F212D1124722F19
:1015C0000895E42FF0E0EE0FFF1FEC5CFE4F40812A
:1015D00034EE439F412D1124E82FF0E050E0445EAB
:1015E0005F4FDA01A21BB1099D01B7FF03C031951E
:1015F0002195310993E0220F331F9A95E1F7AF014E
:10160000421B530B9A0157FF02C020E030E0582FD5
:10161000259F212D1124822F0895622F0895E42FF4
:10162000F0E0EE0FFF1FEC5CFE4F6081621B08953F
:10163000E42FF0E0EE0FFF1FEC5FFE4F61A9621B8D
:101640000895A22F50E0FA01EE0FFF1FEC5FFE4F4E
:1016500091A9905297FD9195440F551FFA01EC5CAA
:10166000FE4F3081232F30E02A1B3109290F311D15
:1016700097FD3A95620F0895EF920F931F9393E0B1
:10168000099F80011124159507956E2D600F1F91FC
:101690000F91EF9008950F93CF93DF93D72FC82F1B
:1016A00047FD4195E8E3F0E0CF01841B910947FD38
:1016B0009395889FB001899F700D700D1124229F12
:1016C000C001239F900D900D1124860F971F0E943B
:1016D000640A682F660F860F682F600F7D2F8C2F8E
:1016E000DF91CF910F9108950F931F93522F10E028
:1016F000F801EE0FFF1FEC5FFE4FE1A9F0E0B0979D
:101700009F015203D001539FB00D1124000F111FF0
:10171000F801EC5CFE4F008110E000571109400316
:101720009001419F300D11242A0F3B1F37FF02C04B
:1017300021583F4F220F232F221F330B620F1F917F
:101740000F9108950F931F93522F10E0F801EE0FA1
:10175000FF1FEC5FFE4FE1A9F0E0B097EE0FFF1F17
:101760009F015203D001539FB00D1124000F111F90
:10177000F801EC5CFE4F008110E000571109000FEA
:10178000111F40039001419F300D11242A0F3B1F70
:1017900037FF02C021583F4F220F232F221F330B48
:1017A000620F1F910F9108950F931F9310E0F8019E
:1017B000EE0FFF1FEC5CFE4F9081905797FD9195C7
:1017C000000F111FF801EC5FFE4FE1A9F0E0B097A8
:1017D000DF01AA0FBB1F8D010E0F1F1F2003D001B9
:1017E000219FB00D1124E8E3F0E0E91BF10997FD1A
:1017F000F3959F01220F331F89010E0F1F1F400316
:101800009001419F300D11242A0F3B1F37FF02C06A
:1018100021583F4F220F232F221F330B620F1F919E
:101820000F9108950F931F93CF93DF93D62F072F18
:10183000182FC42F822F0E94950AEC2FF0E0EE0F94
:10184000FF1FEC5CFE4F90819058890F87FD8195BA
:10185000880F682F2CE0629F612D11246D0F702F6F
:10186000812FDF91CF911F910F910895E42FF0E028
:10187000EE0FFF1FEC5CFE4F9081921B97FD919540
:10188000292F38E1239F212D1124620F08954095BF
:10189000282F429F412D1124842F089522E8241BD4
:1018A00008F420E0620F0895EF92FF920F939701E2
:1018B00095E0099F200D311D11242F3F310519F0AE
:1018C00010F02FEF30E02095382F320F08F43FEF63
:1018D000832F0F91FF90EF900895EF92FF920F9357
:1018E000E00EF11CF90137FF03C0F195E195F10914
:1018F00024E0EE0FFF1F2A95E1F7EF3FF10519F005
:1019000014F0EFEFF0E09A0157FF03C031952195F5
:10191000310994E0220F331F9A95E1F72E173F0704
:101920000CF4F901EE0DFF1DEF3FF10519F010F079
:10193000EFEFF0E02E2F2095382F320F08F43FEF15
:10194000832F0F91FF90EF900895EF92FF920F93E6
:10195000972F093438F4B701601B71096F3F710587
:1019600019F010F06FEF70E0485F5F4F41315105A3
:1019700040F0A901485F5F4F4131510510F06FEF12
:1019800070E06095482F460F08F44FEF842F37FF23
:1019900002C02D5F3F4F359527953595279560916E
:1019A0005803620F792F0F91FF90EF900895EF92F7
:1019B000FF920F939701201B31092F3F310519F03A
:1019C00010F02FEF30E0322F3095482F430F08F4FE
:1019D0004FEF842F620F0F91FF90EF900895EF92D9
:1019E000FF920F939701201B31092F3F310519F00A
:1019F00010F02FEF30E02095382F320F08F43FEF32
:101A0000832F0F91FF90EF900895FC019B010097A9
:101A100021F477FF2BC080E80895AC0197FF04C044
:101A200044275527481B590BB901640F751F37FD13
:101A30000CC0241B350BC901A5E0880F991FAA957E
:101A4000E1F70E94E72F80E20CC0CB0165E0880F30
:101A5000991F6A95E1F7BA01621B730B0E94E72F89
:101A600080E6861BF7FF03C08195089580E0089506
:101A7000FF920F931F93CF93DF93F62E172FD82F3C
:101A8000C901C72FC01BBA010E94050D982F990FDD
:101A9000890F7C2F781B719F712D11246F2D8D2F35
:101AA000DF91CF911F910F91FF900895FF920F93B7
:101AB0001F93CF93DF93F62ED72F182FC901C12F75
:101AC000C01BBA010E94050D982F990F890FC81BE2
:101AD0002C2F219F212D1124822F6F2D7D2FDF91FF
:101AE000CF911F910F91FF900895EF920F931F9345
:101AF000CF93DF93D62F172FC82FC9010E19070FC9
:101B0000BA010E94050D702F781B719F712D112451
:101B10006D2F8C2FDF91CF911F910F91EF90089532
:101B2000EF920F931F93CF93DF93D62FC72F182FCA
:101B3000C9010E19010FBA010E94050D081B202FC3
:101B4000219F212D1124822F6D2F7C2FDF91CF918A
:101B50001F910F91EF9008950F93CF93DF93D72F9D
:101B6000C82FC901BA010E94050D682F600F7D2F93
:101B70008C2FDF91CF910F910895EF920F93CF9318
:101B8000DF93D72FC82FC9010E19BA010E94050D86
:101B9000602F681B7D2F8C2FDF91CF910F91EF90DD
:101BA00008950E94560A089545E050E06CE170E007
:101BB00087E593E00C94A73045E050E06CE170E0DD
:101BC00087E593E00C94C530E7E5F3E085E3808397
:101BD0008091EE019091EF01A091F00181839283B9
:101BE000A3838FE784830C94DC0D80E008950F932A
:101BF0001F93CF93DF93C82FD62F8A010E94F50D34
:101C00009CE0C99FF0011124EC5FFE4FED0FF11D28
:101C100090819F3F29F0F801E80FF11D90838F5FBD
:101C2000DF91CF911F910F910895E0914002F091C3
:101C300041020994E0913C02F0913D0209944F92D7
:101C40005F926F927F928F929F92AF92BF92CF924C
:101C5000DF92EF920F931F93CF93DF932C013B0101
:101C6000FC01C0818BE0C89FC02D1124DBE0DC0F9C
:101C7000D63308F0D5E360915B03669580915C03F1
:101C800090915D030E945A0A182FCD1708F044C0A6
:101C90008C2E912CF401E256FE4F9081F20181814D
:101CA0008923C1F1F401EE0FFF1FEC5CFE4FC080F1
:101CB000D12CF0E7CF1AD108F401EE0FFF1FEC5F33
:101CC000FE4FA1A8B12C80E2A81AB108CC9C9001CB
:101CD000CD9C300D300D1124AA9CC001AB9C900D01
:101CE000900D1124820F931F0E94640A082F6091A7
:101CF00058037091590380915A03E12E9501A60172
:101D0000F30109950E94D10D462F282F672FC4019A
:101D10000E941A0ECF5FB9CF81E0D53308F080E082
:101D2000DF91CF911F910F91EF90DF90CF90BF90F7
:101D3000AF909F908F907F906F905F904F9008959D
:101D400065E77DE00C941F0E60E97DE00C941F0EAA
:101D50006CE37BE00C941F0E6DEB7DE00C941F0E8A
:101D6000AF92BF92CF92DF92EF92FF920F931F93A9
:101D7000CF93DF936C015B01FC01C0818BE0C89FB6
:101D8000C02D1124DBE0DC0FD63308F0D5E36091E1
:101D90005B03669580915C0390915D030E945A0AF3
:101DA000182FCD1778F5EC2EF12CF701E256FE4FE7
:101DB0009081F6018181892319F1F701EE0FFF1F50
:101DC000EC5FFE4F21A930E020523109F701EE0F00
:101DD000FF1FEC5CFE4F408150E04057510960917D
:101DE00058037091590380915A03012FF501099509
:101DF0000E94D10D462F282F672FC7010E941A0E6F
:101E0000CF5FCFCF81E0D53308F080E0DF91CF9175
:101E10001F910F91FF90EF90DF90CF90BF90AF9008
:101E2000089568E37DE00C94B00E66E57DE00C94C7
:101E3000B00E6BE47BE00C94B00E6CEA7DE00C9489
:101E4000B00EBF92CF92DF92EF92FF920F931F934B
:101E5000CF93DF938C017B01FC01C0818BE0C89F95
:101E6000C02D1124DBE0DC0FD63308F0D5E3609100
:101E70005B036695669580915C0390915D030E947B
:101E80005A0AB82ECD17F0F4CC2ED12CF601E2561A
:101E9000FE4F9081F8018181892391F06091580370
:101EA0007091590380915A032B2D4C2FF7010995FE
:101EB0000E94D10D462F282F672FC6010E941A0EAF
:101EC000CF5FE0CF81E0D53308F080E0DF91CF91A4
:101ED0001F910F91FF90EF90DF90CF90BF900895EA
:101EE00066EB7AE00C94210F61EE7AE00C94210FFE
:101EF0006DE07BE00C94210F6FE07BE00C94210FF0
:101F000068E17BE00C94210F61E27BE00C94210FEF
:101F100062E17CE00C94210F66E37CE00C94210FDD
:101F20007F928F929F92AF92BF92CF92DF92EF9269
:101F3000FF920F931F93CF93DF936C015B01FC0122
:101F4000C0818BE0C89FC02D1124DBE0DC0FD633AD
:101F500008F0D5E360915B036695669580915C031C
:101F600090915D030E945A0A182F80E4810F0E940D
:101F7000950A90E8F92EF80E812F0E94950A20E824
:101F8000722E780ECD1700F58C2E912CF401E256AE
:101F9000FE4F9081F60181818923A1F06091580361
:101FA0007091590380915A03E12E0C2F272D4F2D4C
:101FB000F50109950E94D10D462F282F672FC401E6
:101FC0000E941A0ECF5FDECF81E0D53308F080E0AB
:101FD000DF91CF911F910F91FF90EF90DF90CF9005
:101FE000BF90AF909F908F907F90089564E77BE0C3
:101FF0000C94900F62EA7BE00C94900F64ED7BE010
:102000000C94900FAF92BF92CF92DF92EF92FF921B
:102010000F931F93CF93DF937C015B01FC01C08181
:102020008BE0C89FC02D1124DBE0DC0FD63308F015
:10203000D5E320915B0330E040E050E06FEF7FEFAD
:1020400080E090E00E94FB2F8901CD17E8F5CC2EAF
:10205000D12CF601E256FE4F9081F7018181892350
:1020600089F190916003915097FD15C0292F092E99
:10207000000C330BF901E05AFC4F8189C813F3CFF0
:10208000220F331FF901E05AFC4F218D328D2017AA
:10209000310748F701C0980160915B03C9010E94B4
:1020A0005A0AAC01609158037091590380915A0308
:1020B000F50109950E94D10D462F282F672FC601E3
:1020C0000E941A0ECF5FC1CF81E0D53308F080E0C7
:1020D000DF91CF911F910F91FF90EF90DF90CF9004
:1020E000BF90AF90089567E47CE00C9402106EE41A
:1020F0007CE00C9402102F923F924F925F926F926D
:102100007F928F929F92AF92BF92CF92DF92EF9287
:10211000FF920F931F93CF93DF93CDB7DEB729972D
:102120000FB6F894DEBF0FBECDBF8B834B013A01D3
:10213000DB011C918BE0189F102D1124BBE0B10F27
:10214000B983B63310F0E5E3E983F0916003FA83D5
:102150008981181708F07BC0A12EB12CF501E25639
:10216000FE4F9081D40111968C91892309F46DC0A2
:1021700020905803309059034B80512CC501880F93
:10218000991FFC01EC5CFE4FFD83EC83C501880FB9
:10219000991F9C012B5C3E4F3F832E83FA814F1683
:1021A00008F043C0E42CF12CAC81BD81BC91EB2F35
:1021B000F0E0F987E887F701E05AFC4F8181288534
:1021C0003985281B310939872887AE81BF81CC909A
:1021D000D12C8185C81AD108F901EE9F9001EF9F9B
:1021E000300D300D1124CC9CC001CD9C900D900D74
:1021F0001124820F931F0E94640A082FF701EE0F2B
:10220000FF1FE05AFC4F60915B03818D928D0E940D
:102210005A0A7C01960148855985B101852DF30143
:1022200009951B014394582EB9CF20915A03352D9F
:10223000329F312D1124832FB1010E94D10D462FE1
:10224000282F672FC5010E941A0E1F5F81CF81E0E2
:102250009981953308F080E029960FB6F894DEBF97
:102260000FBECDBFDF91CF911F910F91FF90EF90E7
:10227000DF90CF90BF90AF909F908F907F906F90A6
:102280005F904F903F902F9008952091600331E030
:10229000231B08F420E044E55CE0BC01822F0C9491
:1022A0007B1044E55CE0BC0180E00C947B10209145
:1022B000600331E0231B08F420E04DE65CE0BC0144
:1022C000822F0C947B104DE65CE0BC0180E00C9406
:1022D0007B102091600331E0231B08F420E045EAE5
:1022E0005CE0BC01822F0C947B1045EA5CE0BC01F1
:1022F00080E00C947B102091600331E0231B08F4F4
:1023000020E047ED5CE0BC01822F0C947B1047ED90
:102310005CE0BC0180E00C947B102091600331E014
:10232000231B08F420E04FEE5CE0BC01822F0C94EC
:102330007B104FEE5CE0BC0180E00C947B10DF92E0
:10234000EF92FF920F931F93CF93DF938C01DC01E9
:102350008C91CBE08C9FC02D1124DBE0DC0FD633B9
:1023600008F0D5E3609158037091590380915A03A6
:102370000E94D10DF62EE72ED82ECD1798F4EC2F13
:10238000F0E0DF01A256BE4F8C91D80111969C91CE
:10239000982331F02D2D4F2D6E2DCF010E941A0E56
:1023A000CF5FEBCF81E0D53308F080E0DF91CF91B4
:1023B0001F910F91FF90EF90DF900895AF92BF9221
:1023C000CF92DF92EF92FF920F931F93CF93DF9301
:1023D0008C01FC01C0818BE0C89FC02D1124DBE083
:1023E000DC0FD63308F0D5E3E0905903F0905A03A0
:1023F000D09058036D2D7E2D8F2D0E94D10DC62EAD
:10240000B72EA82E60915B036D0D7E2D8F2D0E943F
:10241000D10DF62EE72ED82ECD17B8F48C2F90E0E4
:10242000FC01E256FE4F3081F8012181232359F04F
:1024300030FF04C02D2D4F2D6E2D03C02A2D4C2DA5
:102440006B2D0E941A0ECF5FE7CF81E0D53308F0E5
:1024500080E0DF91CF911F910F91FF90EF90DF907F
:10246000CF90BF90AF900895BF92CF92DF92EF923E
:10247000FF920F931F93CF93DF936C01FC01C081F8
:102480008BE0C89FC02D1124DBE0DC0FD63308F0B1
:10249000D5E300915903B0905A0320915B0310E4F7
:1024A000129F112D1124CD1718F5EC2EF12CF701E8
:1024B000E256FE4F9081F60181818923B9F0F70140
:1024C000EE0FFF1FEC5FFE4F81A982958F70609128
:1024D0005803819F600D1124702F8B2D0E94D10D08
:1024E000462F282F672FC7010E941A0ECF5FDBCF20
:1024F00081E0D53308F080E0DF91CF911F910F91FB
:10250000FF90EF90DF90CF90BF900895BF92CF9251
:10251000DF92EF92FF920F931F93CF93DF937C0193
:10252000FC01C0818BE0C89FC02D1124DBE0DC0FD3
:10253000D63308F0D5E3C0905903B0905A032091E8
:102540005B0330E4D32E3D2D329F312D1124D32E49
:10255000CD1738F50C2F10E0F801E256FE4F9081B0
:10256000F70181818923D9F0F801EE0FFF1FEC5CA0
:10257000FE4F6081D69EB001112495E07595679558
:102580009A95E1F780915803680F7C2D8B2D0E945E
:10259000D10D462F282F672FC8010E941A0ECF5F3A
:1025A000D7CF81E0D53308F080E0DF91CF911F9144
:1025B0000F91FF90EF90DF90CF90BF900895DF9242
:1025C000EF92FF920F931F93CF93DF938C01DC0167
:1025D000CC918BE0C89FC02D1124DBE0DC0FD633FB
:1025E00008F0D5E3E0905803F0905903D0905A03D7
:1025F00060915B0366956695669580915C0390910A
:102600005D030E945A0A0E94950A805887FD8195B1
:10261000880F282F3D2D239F212D1124822FB701B4
:102620000E94D10DF62EE72ED82ECD1798F4EC2F60
:10263000F0E0DF01A256BE4F8C91D80111969C911B
:10264000982331F02D2D4F2D6E2DCF010E941A0EA3
:10265000CF5FEBCF81E0D53308F080E0DF91CF9101
:102660001F910F91FF90EF90DF900895DF92EF920E
:10267000FF920F931F93CF93DF93EC01FC01E2567F
:10268000FE4F9081692381F1D090590300915A0344
:1026900010915803E12EF12C0E948E30282FC70193
:1026A0008C549F4F68E671E00E94E72F8E199F09B6
:1026B00097FD039695958795959587952370612F3E
:1026C000289F600D11247D2D802F0E94D10D462F53
:1026D000282F672FCE01DF91CF911F910F91FF908F
:1026E000EF90DF900C941A0EDF91CF911F910F9114
:1026F000FF90EF90DF900895CF92DF92FF920F93BB
:102700001F93CF93DF938C01FC01C281C1111DC0C7
:1027100060915B0320E1620F08F46FEF80915C032E
:1027200090915D030E945A0A6AE070E00E94D32FE4
:10273000892B59F50E948E3065E370E00E94E72FE7
:10274000F80161810E94361320C0FC018081CBE03A
:102750008C9FC02D11249BE0F92EFC0EF5E3FF1594
:1027600010F485E3F82ED0E0CF2CD12CCC15DD056C
:102770003CF4F8016181CE010E9436132196F6CF18
:10278000C1E0F4E3FF1508F4C0E08C2FDF91CF9196
:102790001F910F91FF90DF90CF9008951F93CF93DB
:1027A000DF93FC01E256FE4F20816223A9F0EC0189
:1027B0000E948E30182F0E948E30612F782F8091CA
:1027C0005A030E94D10D462F282F672FCE01DF918B
:1027D000CF911F910C941A0EDF91CF911F91089504
:1027E000CF92DF92FF920F931F93CF93DF938C01D1
:1027F000FC01C281C1111DC060915B0320E1620F29
:1028000008F46FEF80915C0390915D030E945A0A77
:1028100065E070E00E94D32F892B59F50E948E301D
:1028200065E370E00E94E72FF80161810E94CE13FA
:1028300020C0FC018081CBE08C9FC02D11249BE047
:10284000F92EFC0EF5E3FF1510F485E3F82ED0E029
:10285000CF2CD12CCC15DD053CF4F8016181CE01E3
:102860000E94CE132196F6CFC1E0F4E3FF1508F4E1
:10287000C0E08C2FDF91CF911F910F91FF90DF90DF
:10288000CF900895DF92EF92FF920F931F93CF9313
:10289000DF938C01DC01CC918BE0C89FC02D11240B
:1028A000DBE0DC0FD63308F0D5E3E0905903F0907D
:1028B0005A03D090580360915B03669566956695C0
:1028C00080915C0390915D030E945A0A0E94950AD0
:1028D000805887FD8195880F682F2CE0629F612DBD
:1028E00011246D0D7E2D8F2D0E94560AF62EE72E97
:1028F000D82ECD1798F4EC2FF0E0DF01A256BE4F92
:102900008C91D80111969C91982331F02D2D4F2D4B
:102910006E2DCF010E941A0ECF5FEBCF81E0D53331
:1029200008F080E0DF91CF911F910F91FF90EF9021
:10293000DF900895E0913E02F0913F020994CF921A
:10294000DF92EF92FF920F931F93CF93DF93CDB758
:10295000DEB728970FB6F894DEBF0FBECDBF182F95
:10296000062FF42E0E94661B882309F46DC0FF20F9
:1029700049F0AE014F5F5F4F602F812F0E94F70D2E
:10298000F82E01C0F12CE09086020F2D10E0C80156
:102990008E0D911D099764F188E090E06C01C01ADA
:1029A000D10AB80169577D4FA60187E892E00E94DD
:1029B0009E30B80161577D4FA6018FE892E00E94DA
:1029C0009E30A601440F551FB801660F771F615650
:1029D0007D4F8FE992E00E949E30B80169567D4F8D
:1029E000A60187E992E00E949E30EA94E092860276
:1029F00010918602DE01119640E0842F810FF416BB
:102A000009F190E05D91252F30E0BC016A577D4FC0
:102A1000F901EE0FFF1FEC5CFE4F0081FB0101830B
:102A2000220F331FF901EC5FFE4F21A9FB01218723
:102A3000518B880F991FFC01EA57FD4F128E118EA2
:102A40004F5FDBCF8093860228960FB6F894DEBFE7
:102A50000FBECDBFDF91CF911F910F91FF90EF90EF
:102A6000DF90CF90089508950C9433150E9434158B
:102A70000C94331508950C943A15CF93DF93FC0111
:102A8000C081C1508BE0C89FC02D1124DBE0DC0F5A
:102A9000D63308F0D5E36D2F8C2F0E943B156D2F98
:102AA0008C2FDF91CF910C943A154F925F926F92D9
:102AB0007F928F929F92AF92BF92CF92DF92EF92CE
:102AC000FF92CF936091AF027091B0028091B102FA
:102AD0009091B2020E9472286B017C010E945728DB
:102AE0004B015C016093AF027093B0028093B1021E
:102AF0009093B202A0918602E6E8F2E08A2F90E07D
:102B00004FEF5FEF60E070E04C195D096E097F09DF
:102B1000A91799F0218D328D2901612C712C441552
:102B200055056605770510F4815004C02C0D3D1D38
:102B3000328F218F9F5F3296EBCF809386028091F8
:102B4000B302811108C0C09157038C2F837019F014
:102B5000C695C69501C0C0E08091DB018130E9F0E7
:102B600038F0823009F429C1833009F436C146C1F6
:102B70001092DC0180925C0390925D03A0925E0350
:102B8000B0925F0389E2E6E8F2E0A0E6B3E00190EC
:102B90000D928A95E1F781E01AC18091DF01C81397
:102BA0000DC020915703237030E04091E00150E0C8
:102BB00081E02417350719F480E001C081E08170BD
:102BC0008093DE014C2F50E04832510508F0D1C00F
:102BD000FA01EA5AFF4F0C941A30882309F4C9C04D
:102BE00040E060E080E00E949A14C3C08CED91E068
:102BF0000E949F11BFC08CED91E00E94DE11BAC00F
:102C00008CED91E00E943412B5C08CED91E00E94F1
:102C10008612B0C08CED91E00E94DF12ABC08CED4B
:102C200091E00E94700FA6C08CED91E00E94740F9D
:102C3000A1C08CED91E00E94110F9CC08CED91E041
:102C40000E94150F97C08CED91E00E94A00E92C0DB
:102C50008CED91E00E94A40E8DC08CED91E00E945D
:102C6000780F88C08CED91E00E947C0F83C08CEDC2
:102C700091E00E94800F7EC08CED91E00E94840F55
:102C800079C08CED91E00E94A80E74C08CED91E0AB
:102C90000E94190F6FC08CED91E00E941D0F6AC059
:102CA0008CED91E00E94AC0E65C08CED91E00E942D
:102CB000F60F60C08CED91E00E94FA0F5BC08CEDC6
:102CC00091E00E94FE0F56C08CED91E00E947C13B3
:102CD00051C08CED91E00E94F0134CC08CED91E05E
:102CE0000E94421447C08CED91E00E94880F42C0C0
:102CF0008CED91E00E948C0F3DC08CED91E00E9424
:102D0000731038C08CED91E00E94771033C08CEDC9
:102D100091E00E9445112EC08CED91E00E9451116E
:102D200029C08CED91E00E94571124C08CED91E0F8
:102D30000E9463111FC08CED91E00E9469111AC0BE
:102D40008CED91E00E94751115C08CED91E00E9410
:102D50007B1110C08CED91E00E9487110BC08CEDAF
:102D600091E00E948D1106C08CED91E00E949911B6
:102D700001C080E09091DC019F5F9093DC018111A4
:102D800029C082E08093DB018091DE01811122C0A5
:102D9000CC23E1F00E9436158CED91E0CF91FF90AD
:102DA000EF90DF90CF90BF90AF909F908F907F90EB
:102DB0006F905F904F900C943D15C093DF01809110
:102DC000570383708093E0010E94150E83E0809387
:102DD000DB0114C0CC2391F0DDCF60915C037091D6
:102DE0005D0380915E0390915F030E9472286031C1
:102DF00071058105910510F01092DB01CF91FF90D4
:102E0000EF90DF90CF90BF90AF909F908F907F908A
:102E10006F905F904F900895E0913A02F0913B02DD
:102E2000099510926003E9E7F3E08FEF9FEF81933C
:102E3000919323E0E938F207D1F710928602EFE987
:102E4000F2E08FEF9FEF8193919322E0EF3AF20748
:102E5000D1F70E94CC26811104C00E9473270E94E2
:102E6000E40D0E94D40D809157038C7F11F40C94D3
:102E7000E40D0895CF93C82F882329F040E060E047
:102E800080E00E949A14C093B302CF9108952091DC
:102E9000570391E09227909357031092DB01811121
:102EA0000C94DC0D089581E00C9447179091570322
:102EB000937091F0811102C0946007C0883210F0C5
:102EC0009C6903C0880F880F982B9093570310922A
:102ED000DB0161110C94DC0D089561E00C94561730
:102EE000682F90915703969596959F5F983210F4AE
:102EF000892F01C081E00C94561781E00C94701763
:102F0000682F9091570396959695915011F0892FBF
:102F100001C087E20C94561781E00C9480179091C1
:102F20005703937049F0809358036093590340937B
:102F30005A0321110C94DC0D0895A7E5B3E0119616
:102F4000EC911197F0E0282F13964C91139712965D
:102F50006C91CF0108960C948F1781E00C949D170B
:102F6000A7E5B3E01196EC911197F0E0282F1396A6
:102F70004C91139712966C91CF0108970C948F1770
:102F800081E00C94B017E7E5F3E0628120E1620F85
:102F900008F46FEF9181282F4381892F90E00C94E2
:102FA0008F1781E00C94C317E7E5F3E0628120E11D
:102FB000621B08F460E09181282F4381892F90E003
:102FC0000C948F1781E00C94D417E7E5F3E043816C
:102FD00020E1420F08F44FEF9181282F6281892F61
:102FE00090E00C948F1781E00C94E517E7E5F3E08F
:102FF000438120E1421B08F440E09181282F628147
:10300000892F90E00C948F1781E00C94F617209193
:103010005B0330E1230F08F42FEF20935B03811152
:103020000C94DC0D089581E00C94071820915B034B
:1030300030E1231B08F420E020935B0381110C9402
:10304000DC0D089581E00C9416180895FC01EE0F34
:10305000FF1F8E0F9F1FFC01E757FC4F61834083CA
:1030600022830895E9E8F3E094E0E832F90729F0D3
:103070008183608342833396F7CF089565E370E0E0
:1030800089E893E00C94AA18882311F0FA0101C092
:10309000FB0109940F931F93CF93FB01C281CC23B3
:1030A00009F450C08C010E9413268272F801E35C7F
:1030B000FC45E431F10508F048C0E258FF4F0C949C
:1030C0001A300E94531740C04CE857E16DE777E192
:1030D00004C04DE757E16CE877E10E94441834C022
:1030E00040EC57E16DEA77E1F8CF4DEA57E160EC4B
:1030F00077E1F3CF42EE57E161ED77E1EECF41EDBD
:1031000057E162EE77E1E9CF44E058E163EF77E120
:10311000E4CF43EF57E164E078E1DFCF42E258E1EA
:1031200063E178E1DACF43E158E162E278E1D5CFBB
:1031300081E005C085E003C08DE001C082E10E940E
:103140006D1702C0C1E001C0C0E08C2FCF911F916C
:103150000F9108956A9A2EB12B7F3EB134604FB71C
:10316000F894FC01CB01880F991F680F791F6E0F2F
:103170007F1FE617F70789F0819198E03EB90000BC
:1031800000C087FF2EB9880F000000C000C000C03B
:103190002EB900C09A9591F7ECCF4FBF8FE594E020
:1031A0000197F1F700C0000008950F931F93CF938C
:1031B000DF93C42FD22FFC0182818823C9F0409372
:1031C000B6020E944B289093B5028093B40280E22D
:1031D0008C0F883008F057C0C77081E001C0880F9D
:1031E000CA95EAF7DF91CF911F910F910C94BA1D08
:1031F0008091B602481330C08091B4029091B5021C
:103200000E9463288436910538F510E21D0FCD1712
:10321000B9F080E28C0F883040F4C77081E001C0C3
:10322000880FCA95EAF70E94C11D183028F581E081
:103230009D2F977001C0880F9A95EAF70E94BA1DDA
:10324000802F0E94B11D1830F0F4D77081E001C0CA
:10325000880FDA95EAF70AC080E28C0F883098F47C
:10326000C77081E001C0880FCA95EAF7DF91CF915E
:103270001F910F910C94C11D802FDF91CF911F9151
:103280000F910C94B11DDF91CF911F910F91089573
:103290000F939C01CB01243F4CE5340731F188F4B6
:1032A000293DFCE53F07D9F02A3D4CE5340779F18B
:1032B000283D3C45A9F506E221EE41EE68ED7CE5AE
:1032C0002BC0263FFCE53F07E1F0A8F0273F3C4537
:1032D00039F507E225EE46EE67EF7CE51DC007E213
:1032E00025EE45EE69ED7CE517C006E221EE40EEE5
:1032F00064EF7CE511C007E225EE44EE65EF7CE566
:103300000BC006E221EE42EE66EF7CE505C008E266
:1033100021E045EE6AED7CE50E94D51880E008C00A
:10332000FC018281882319F01092B60201C081E06D
:103330000F910895CF93DF93EC01FB0182818823E5
:1033400009F41FC1C230FCE5DF0708F41BC1C63118
:103350009CE5D90738F09E012B5F3C4529303105AB
:1033600008F010C10E94DF2690932D0480932C0456
:10337000C031ECE5DE0709F4C3C008F041C0C83035
:103380008CE5D80709F49AC0F0F4C430ECE5DE0708
:1033900009F487C068F4C2308CE5D80709F477C017
:1033A000C330DC4509F0E3C080912C04826076C014
:1033B000C630ECE5DE0709F46EC008F07BC08091F2
:1033C0002C0488606BC0CC308CE5D80709F485C02C
:1033D00068F4CA30ECE5DE0709F474C008F079C07F
:1033E0000E94472080912C04806858C0CE308CE524
:1033F000D80709F476C008F07FC080912C048BC0F8
:10340000CC3FECE5DE0709F44FC018F5C3318CE57D
:10341000D80709F47DC078F4C131ECE5DE0709F482
:1034200073C0C231DC4509F0A2C00E9447208091E0
:103430002C048F7733C0C5318CE5D80709F472C0EE
:1034400008F486C0CB3FDC4509F091C080912D0483
:103450003EC0C115FDE5DF0709F45FC058F4CE3F5B
:103460009CE5D90709F444C008F43FC080912D04BD
:1034700082602DC0C230FDE5DF0709F475C008F495
:103480005DC0C330DD4509F072C080E06EC0809140
:103490002C04816003C080912C04806180932C04F3
:1034A00066C080912C0411C080912D0482608093AD
:1034B0002D045DC080912C048062F0CF80912C049B
:1034C0008064ECCF80912C0488608460E7CF8160B9
:1034D000EECF80912C048E7FE1CF80912C048D7FE4
:1034E000DDCF80912C04877FD9CF80912D0418C027
:1034F00080912D048D7FDBCF80912C048F7ECECFE9
:1035000080912C048F7DCACF80912C048F7BC6CFF5
:1035100080912C04877F8B7FC1CF80912D048D7F7C
:103520008E7FC5CF80912C0482FB222720F991E069
:10353000922790FB82F990FB83F9B0CF80912D0404
:10354000982F909591708E7F892B90FB81F9AFCF4A
:103550000E94472080912C0487FB222720F991E0CC
:10356000922790FB87F99ACF81E00E94752780917E
:103570002C0490912D040E94F0260E94472080E0A8
:1035800001C081E0DF91CF910895CF93DF93863121
:103590009C4541F5EB010E941326982F8A812091CA
:1035A000E1013091E201882379F09A7A81E009F40F
:1035B00080E08093B702911102C069E201C065E327
:1035C000C9010E94BC270AC08091B702811102C0C4
:1035D00069E201C065E3C9010E94BE270E9461261D
:1035E00080E001C081E0DF91CF9108959093BD020A
:1035F0008093BC020895E091BC02F091BD02309727
:1036000021F00190F081E02D099480E00895E0918F
:10361000BC02F091BD02309721F00280F381E02DD1
:1036200009940895E091BC02F091BD02309739F001
:1036300022E0DC012C930480F581E02D09940895AB
:103640002091BA023091BB022817390771F090938C
:10365000BB028093BA02E091BC02F091BD023097A8
:1036600021F00680F781E02D099408952091B80299
:103670003091B9022817390771F09093B9028093FD
:10368000B802E091BC02F091BD02309721F00084B5
:10369000F185E02D099408950E9457286093CB028C
:1036A0007093CC028093CD029093CE026093C702B8
:1036B0007093C8028093C9029093CA02089585B797
:1036C000806885BF85B7806885BF089581E00895CB
:1036D0000C94661B08950C946A1B0C946A1B0C9442
:1036E0006D1B0C946A1B0C94711B0C946A1B0E943A
:1036F0005F1B84EC96E20E94D8280E94751B0C94F4
:10370000731B0E9442280E9422060E94F3280C94F8
:103710006F1B6F927F928F929F92AF92BF92CF92C8
:10372000DF92EF92FF920F931F93CF93DF93CDB76A
:10373000DEB72A970FB6F894DEBF0FBECDBF0E944A
:103740006B1B0E946A1B0E94650681110E944C1B24
:103750003FEB832E32E0932E00E010E0E02E802F2E
:103760000E94F0055C01F401619071904F016826A0
:10377000792661147104B1F40F5F1F4F04301105F5
:1037800069F78FEF89838A831B820E944B288160AF
:10379000782F9D838C8349815A816B818D810E9412
:1037A0004E1C43C080913B0381FD0E94F905F12C22
:1037B000CC24C394D12CC3018C219D21892B71F180
:1037C0000E94681BAC20BD208823A1F0FE82EF82FE
:1037D00081E0A114B10409F480E088870E944B289D
:1037E0008160782F9A8789874E815F8168858A8575
:1037F0000E944E1C000F111FF801E154FD4F808103
:103800009181C826D926D182C08241E0AB2809F433
:1038100040E06F2D8E2D0E949F1407C0F394CC0CB6
:10382000DD1CFCE0FF12C7CFA7CF0E9455150E94F8
:10383000A5080E94FB1A9091BE028917D1F00E9440
:10384000FB1A8093BE022A960FB6F894DEBF0FBE15
:10385000CDBFDF91CF911F910F91FF90EF90DF903F
:10386000CF90BF90AF909F908F907F906F900C946F
:10387000D9032A960FB6F894DEBF0FBECDBFDF91F5
:10388000CF911F910F91FF90EF90DF90CF90BF905D
:10389000AF909F908F907F906F900895DF92EF92FE
:1038A000FF920F931F93CF93DF93CDB7DEB72B9784
:1038B0000FB6F894DEBF0FBECDBFF42E052F162F26
:1038C000E72ED82E61110E943326FE01319686E044
:1038D000DF011D928A95E9F77E2D4F2D502F612F24
:1038E0008D2D9E810E9400232B960FB6F894DEBF8B
:1038F0000FBECDBFDF91CF911F910F91FF90EF9041
:10390000DF900895FC01808191810E94D425089563
:10391000CF93882309F4A4C0C82F8238C1F40E9431
:10392000FB1A81FD9DC069E38091E1019091E20164
:103930000E94BC270E9461262FEF81EE94E0215067
:1039400080409040E1F700C0000069E319C083386F
:1039500001F50E94FB1A80FD83C063E58091E101BF
:103960009091E2010E94BC270E9461262FEF81EE18
:1039700094E0215080409040E1F700C0000063E5F2
:103980008091E1019091E2010E94BE27CF910C94B9
:1039900061268438C1F40E94FB1A82FD61C067E48D
:1039A0008091E1019091E2010E94BC270E94612672
:1039B0002FEF81EE94E0215080409040E1F700C06D
:1039C000000067E4DDCF8CEF8C0F813AD0F46C2FD0
:1039D0008091E1019091E2010E948627882349F0BD
:1039E0006C2F8091E1019091E2010E94BE270E941C
:1039F00061266C2F8091E1019091E2010E94BC2729
:103A0000C5CF80E28C0F883048F4C77081E001C0D8
:103A1000880FCA95EAF70E941626B8CFEBE5EC0F9F
:103A2000E33040F4F0E0E059FD4F808190E0CF9129
:103A30000C94201BE8E5EC0FE73150F4F0E0EE0FBA
:103A4000FF1FEE5BFD4F80819181CF910C94361B5F
:103A5000CD3E30F08C2F0E94B507CF910C94870893
:103A6000CF910895882309F464C0823879F40E94C4
:103A7000FB1A81FF5EC069E38091E1019091E20150
:103A80000E94BC270E94612669E310C08338B1F40C
:103A90000E94FB1A80FF4DC063E58091E101909187
:103AA000E2010E94BC270E94612663E58091E1014A
:103AB0009091E2010E94BE270C946126843879F42B
:103AC0000E94FB1A82FF35C067E48091E10190916A
:103AD000E2010E94BC270E94612667E4E7CF9CEFC9
:103AE000980F913A10F4682FE1CF90E2980F983038
:103AF00050F4877091E001C0990F8A95EAF7892FF9
:103B00000E941C26D9CF9BE5980F933020F480E0CB
:103B100090E00C94201B98E5980F973120F480E0FA
:103B200090E00C94361B8D3E20F00E9410080C94FF
:103B3000870808951F93CF93DF93182FEB010E94FE
:103B4000881C209741F08FE99FE00197F1F700C0B2
:103B500000002197F6CF812FDF91CF911F910C9418
:103B6000321D893319F060E070E002C060E570E05A
:103B70000C949A1D882321F00E9416260C9461262D
:103B80000895882321F00E941C260C946126089534
:103B9000CF92DF92EF92FF920F931F93CF93DF9319
:103BA0007C01062FC72FFC01D281158112951F7051
:103BB0000E940C26882399F0DD2389F08C2F807FCA
:103BC000803421F080E2800F883048F082E00E944B
:103BD000AB260E940C2691E0D82ED92601C0D12C0C
:103BE000CC2EC2948FE0C8228C2D90E0FC01EE56C2
:103BF000FF4F0C941A308C2F807FCF70882311F0E8
:103C0000C295C07FDD2399F0CC2309F48DC180E2F9
:103C1000800F883010F0011104C08C2F0E941626EE
:103C200003C08C2F0E9426260E9461267DC1802F12
:103C30000E94321DCC2309F49CC180E2800F8830A1
:103C400010F0011104C08C2F0E941C2603C08C2F81
:103C50000E942C260E9461268CC18C2F807FCF7001
:103C6000803211F0C295C07F002319F00130C9F0F5
:103C700022C0DD2371F0112341F0113031F40E9494
:103C800046268C2B0E944E2674C10E9446268C2B01
:103C90001DC0112319F0113009F46BC10E94572681
:103CA00025C0DD2321F0163008F063C10EC01530A9
:103CB00008F05FC11BC0DD2361F0112331F0F70173
:103CC000858180FF31C18F7085838C2F0E94BA1D42
:103CD00050C1112359F0093309F037C1FFEF27EE26
:103CE00083E0F15020408040E1F72DC18C2F0E94ED
:103CF000C11D3FC18C2F86958695837019F0813048
:103D000061F037C1DD2321F0802F9C2F937002C01A
:103D100080E090E00E94201B34C1DD2321F0802F41
:103D20009C2F937002C080E090E00E94361B29C156
:103D3000802FDD2319F00E94B50702C00E941008F1
:103D40000E9487081EC18C2F837009F045C0D111D5
:103D500014C1402F429546954770440F440F602F81
:103D60006F70862F90E0A0E0B0E0042E04C0880FB2
:103D7000991FAA1FBB1F0A94D2F704FF10C00FE0BF
:103D800010E020E030E004C0000F111F221F331F9D
:103D90004A95D2F7009510952095309503C000E024
:103DA00010E09801C695C695C370BC01CD01602B8B
:103DB000712B822B932BC23049F058F4C13019F08B
:103DC0000E945124DAC00E943F24D7C00E9463247D
:103DD000D4C00E943D24D1C0DD2319F08C2F817006
:103DE00001C08695882309F4C8C0402F42954695A6
:103DF0004770440F440F602F6F70862F90E0A0E053
:103E0000B0E0042E04C0880F991FAA1FBB1F0A949C
:103E1000D2F704FF10C00FE010E020E030E004C053
:103E2000000F111F221F331F4A95D2F700951095DE
:103E30002095309503C000E010E09801C695C69526
:103E4000C370BC01CD01602B712B822B932BC23030
:103E500049F058F4C13019F00E9416258EC00E9416
:103E600004258BC00E94282588C00E94772485C025
:103E7000CF70DD2339F08C2F0E949D24802F0E946B
:103E8000BA1D7BC0802F0E94C11D8C2F0E94BE24B2
:103E900074C0023F01F128F4003F41F0013FA1F05E
:103EA0003FC0033FF9F0043F39F13AC0DD2341F050
:103EB000153008F05EC08C2F8F710E94E32459C02A
:103EC000163008F056C0F7CFDD2339F08C2F8F71F4
:103ED0000E949D244EC0DD23C9F38C2F8F710E9458
:103EE000BE2447C0DD2329F08C2F8F710E948824C7
:103EF00040C00E9483243DC0DD2349F0CF718C2F48
:103F00000E949D2463E08C2F0E94962632C081E09F
:103F10000E94AB26123068F182E00E94AB2629C0D5
:103F2000DD2331F0112391F2802F0E94881C21C0E3
:103F3000112399F2093349F49FEFE7EEF3E0915032
:103F4000E040F040E1F700C00000802F0E94321DE9
:103F500010C04C2F4F70602FC7010E94E2030E94D7
:103F6000AE230FC04C2F4F70602FC7010E94E50396
:103F700008C088EF8C0D843020F40E94FB1A0E9448
:103F8000D903DD20C9F00E94082680FD15C0F70185
:103F900012820E9402260E949D24C7010E94FD1FDA
:103FA0000E940226DF91CF911F910F91FF90EF9019
:103FB000DF90CF900C94BE24DF91CF911F910F9191
:103FC000FF90EF90DF90CF9008950F931F93CF93C2
:103FD000DF93EC01688179818A810E94DF258C0161
:103FE0000E943A250E942B24B801CE010E94C81DD0
:103FF000DF91CF911F910F910895CF93DF93EC0143
:10400000988189812B813C81232B31F08F3F31F4C2
:1040100081E09F3F19F403C081E001C080E080FD92
:1040200019C0CE010E948F0381110CC00E940C2682
:10403000882381F08A81882369F082E0DF91CF9123
:104040000C94AB26CE010E94E51FCE01DF91CF91EB
:104050000C946603DF91CF91089580E090E00E9478
:10406000201B80E090E00E94361B0E9433260E94B5
:1040700043260E9461260E94B8090C94870880910B
:10408000E1019091E2010E94C0270C942D200E9432
:1040900023260C943F20E92FE295EF704E2F50E03D
:1040A000FA013297EE30F105B0F4EE55FF4F0C9463
:1040B0001A30803F91F018F4883E68F40EC0843FB7
:1040C00051F40BC0883E48F0813F29F406C093FBB1
:1040D000882780F9089580E0089581E008950E947E
:1040E000D4250E944B200895CF93DF9300D000D0B9
:1040F0001F92CDB7DEB70F900F900F900F900F90DB
:10410000DF91CF910895CF93DF9300D000D000D0FE
:10411000CDB7DEB726960FB6F894DEBF0FBECDBF83
:10412000DF91CF9108951F93CF93DF93C091D00279
:1041300016E08091D102C81799F0D0E01C9FF001E1
:104140001D9FF00D1124EE52FD4F4081518162817F
:104150007381848195810E9483202196C770E9CF65
:10416000DF91CF911F910895409102035091030375
:1041700060910403709105038091060390910703F9
:104180000C9483200F931F93CF93DF9380910703A9
:1041900082958F7009F05DC080910403882309F433
:1041A00058C08091D0021091D102609102037091A9
:1041B0000303C0910503D091060391E06F3F09F01E
:1041C00090E0292F06E0811709F443C0209721F0E1
:1041D0007F3F21F030E003C031E001C0322F90E09A
:1041E00030FD34C0089FF001099FF00D1124DF015C
:1041F000AE52BD4F11963C911197371327C03C9199
:10420000361324C012963C91129731111FC0139699
:104210004D915C9114974C1B5D0B44365105B0F4E5
:10422000809107038F70806180930703E952FD4FEF
:1042300080818F708061808382E093E00E94FD1F07
:10424000DF91CF911F910F910C949320019687706D
:10425000BACFDF91CF911F910F9108959F92AF92A6
:10426000BF92CF92DF92EF92FF920F931F93CF9363
:10427000DF93CDB7DEB761970FB6F894DEBF0FBE00
:10428000CDBF8C0185E0F801DE011D9601900D92F5
:104290008A95E1F7F80140815181E2809091020313
:1042A0006091030320910503309106032115310528
:1042B00031F06F3F31F481E09F3F19F403C081E09A
:1042C00001C080E0F82FF1709F2E80FD46C1F801FB
:1042D000A380B48082E0C82E83E0D82EF09004033F
:1042E000F501E21BF30BFF2009F4DFC08091070307
:1042F000E436F10508F09BC0282F207F09F052C05A
:10430000561313C0491311C0FE2CE1100EC08F705C
:104310008061809307030E94B420C6010E94FD1FA4
:1043200080910703F801858358C1AB2831F05F3FC6
:1043300031F481E04F3F19F403C081E001C080E017
:1043400080FD03C081E08E2502C080E090E0F82F60
:10435000F170FF2E80FF1CC08091D0022091D1020D
:1043600036E0821709F417C190E0389FF001399FB9
:10437000F00D1124EE52FD4F6181561306C060818D
:10438000461303C06281E61203C001968770E9CF2D
:10439000FE2CEE2009F421C18091070381608093F7
:1043A00007035AC0561306C0491304C0E11002C0E7
:1043B000F8019FC04D875E878D859E850E946F2086
:1043C000882379F1EE2069F120910703822F8295ED
:1043D0008F7090E0029774F0809102039091030334
:1043E00098878F831986BB86AA862C87CE0107966D
:1043F0000E94FD1F86E0F801A2E0B3E001900D925B
:104400008A95E1F70E94C2200E94B4200DC0561781
:1044100029F14D875E878D859E850E946F208111D1
:104420002CC0C8010E94FD1FFF24F394D6C0282F82
:10443000207F69F77A2DB98AA88A6E2D89890E9412
:10444000742082E093E00E94FD1F86E0F601119245
:104450008A95E9F70E94B420F12CBFC04913D9CF47
:10446000E110D7CFF8018583C8010E94FD1F86E0C7
:10447000F60111928A95E9F7B0C0EE2091F22091F1
:104480000703822F82958F7090E002970CF4B2CFD1
:1044900080910203909103039A8389831B82BD82DA
:1044A000AC822E83CE010196A3CFE436F10508F04D
:1044B00047C0FE2CEE2009F4B4CF561330C0491388
:1044C0002EC02091070320FD21C0822F82958F707E
:1044D000482F50E041155105C9F0F80125834F30B0
:1044E000510541F08F5F982F9295907F822F8F70AA
:1044F000892B8583C8010E94FD1F86E0F801A2E098
:10450000B3E001900D928A95E1F742C086E0F80190
:10451000A2E0B3E001900D928A95E1F75EC04D876D
:104520005E878D859E850E946F20811163CF80916B
:104530000703816080930703C8010E94FD1F4DC0DF
:104540007A2DB98AA88A6E2D89890E94742086E006
:10455000F60111928A95E9F71BC0EE2009F461CFAC
:104560004D875E878D859E850E946F20F82E88235B
:1045700009F457CF86E0F801A2E0B3E001900D9274
:104580008A95E1F782E093E00E94821C0E94C2209B
:104590000E94B42022C04D875E878D859E850E9433
:1045A000D425292F22952F70223028F49F7039F0BE
:1045B000811105C00BC0243028F49F7049F4805E3F
:1045C000883020F0C8010E94FD1F9F2CF92C05C0E7
:1045D000F8019581907F99F7F9CF8F2D61960FB6ED
:1045E000F894DEBF0FBECDBFDF91CF911F910F9129
:1045F000FF90EF90DF90CF90BF90AF909F90089585
:104600001F93CF93DF93CDB7DEB72C970FB6F894F7
:10461000DEBF0FBECDBF4F83588769877A878B87F0
:104620009C87CE0107960E942E218823D1F09F817E
:1046300088852A853B85232B31F08F3F31F481E03B
:104640009F3F19F403C081E001C080E080FD47C0B6
:104650004F81588569857A858B859C850E9483204A
:104660003EC086E0FE013796DE01119601900D9264
:104670008A95E1F7FF81E8856A857B85611571057B
:1046800031F0EF3F31F481E0FF3F19F403C081E0E6
:1046900001C080E080FD23C02091D10230E0C9013B
:1046A0000196877099274091D00250E084179507B2
:1046B000F1F1F983EA837D836C8396E0929FD001C8
:1046C000939FB00D1124AE52BD4FFE013196019063
:1046D0000D929A95E1F78093D1020E94932016E003
:1046E0008091D0029091D102891771F1189FC00179
:1046F00011248E529D4F0E942E21882329F1E09192
:10470000D0021E9FF0011124EE52FD4F40815181D5
:1047100062817381848195810E9483208091D0027F
:1047200090E00196877099278093D002D9CF0E949C
:1047300047201092D1021092D002E2E0F3E086E02E
:10474000DF011D928A95E9F72C960FB6F894DEBF2B
:104750000FBECDBFDF91CF911F910895EF92FF92D1
:104760000F931F93CF93DF938C01892B09F46CC0B7
:10477000F12CEE24E394E8012196F801849184372A
:1047800040F4843008F051C0813081F0823019F15A
:104790005BC0853709F444C0A8F19CE7980F9037B7
:1047A00008F052C08F770E94321D41C00E5F1F4F2C
:1047B000FE01849190E2980F983050F48770FE2D9E
:1047C00001C0FF0F8A95EAF78F2F0E94362614C08A
:1047D0000E94881C2DC00E5F1F4FFE01849190E245
:1047E000980F983060F48770FE2D01C0FF0F8A95F6
:1047F000EAF78F2F0E943C260E94612619C00E9472
:10480000321D16C00E5F1F4FFE01C491CC2381F0F4
:104810008FE99FE00197F1F700C00000C150F6CF8B
:104820000E5F1F4FFE01F49003C00E94881C8E0192
:104830008F2D882309F49FCFEFE9FFE03197F1F73F
:1048400000C000008150F5CFDF91CF911F910F91F3
:10485000FF90EF900895089508950C942C240C94E3
:104860002D240E942F2460932A0370932B0380939E
:104870002C0390932D030C942D200C9431240F9332
:104880001F9300912A0310912B0320912C03309148
:104890002D03602B712B822B932B1F910F910C9466
:1048A00031240F931F9300912A0310912B03209121
:1048B0002C0330912D0360237123822393231F91B6
:1048C0000F910C9431240F931F9300912A031091A0
:1048D0002B0320912C0330912D0360277127822711
:1048E00093271F910F910C9431240C942C240E9437
:1048F0007524609326037093270380932803909375
:1049000029030C942D2060E070E0CB010C947724F7
:104910000F931F9341E050E060E070E08A019B013B
:1049200004C0000F111F221F331F8A95D2F7C9013F
:10493000B8011F910F910C9477240F931F9341E0BE
:1049400050E060E070E004C0440F551F661F771F01
:104950008A95D2F78091260390912703A09128038E
:10496000B09129038A019B01082B192B2A2B3B2B81
:10497000C901B8011F910F910C9477240F931F93D5
:1049800041E050E060E070E004C0440F551F661F36
:10499000771F8A95D2F740955095609570958091D4
:1049A000260390912703A0912803B09129038A013F
:1049B0009B01082319232A233B23C901B8011F9116
:1049C0000F910C9477240F931F9341E050E060E027
:1049D00070E004C0440F551F661F771F8A95D2F7F9
:1049E0008091260390912703A0912803B091290379
:1049F0008A019B01082719272A273B27C901B801EB
:104A00001F910F910C9477240F931F93009126030D
:104A1000109127032091280330912903602B712BDB
:104A2000822B932B1F910F910C9477240F931F933C
:104A30000091260310912703209128033091290328
:104A400060237123822393231F910F910C94772469
:104A50000F931F93009126031091270320912803A1
:104A60003091290360277127822793271F910F9187
:104A70000C94772408952CE0929F800D1124E82F48
:104A8000E695E695E695877051E001C0550F8A9549
:104A9000EAF785E0E89FF0011124E85FFC4F20E091
:104AA00030E070E04081CB01022E02C096958795E0
:104AB0000A94E2F781708195842785238427819366
:104AC0002F5F3F4F2530310569F708952CE0929F05
:104AD000800D1124682F669566956695982F9770BE
:104AE00085E0689FB001112440E050E080E0FB01C8
:104AF000E40FF51FE85FFC4F208130E0092E02C073
:104B0000369527950A94E2F721703327042E01C0C9
:104B1000220F0A94EAF7822B4F5F5F4F4530510511
:104B200031F70895BF92CF92DF92EF92FF920F93E9
:104B30001F93CF93DF938C01C0902603D09027035F
:104B4000E0902803F090290380912A0390912B0391
:104B5000A0912C03B0912D03C82AD92AEA2AFB2A56
:104B6000CFE1D0E0D701C6010C2E04C0B695A795C1
:104B7000979587950A94D2F780FD04C0219790F706
:104B8000B12C07C0BC2EB8018C2F0E9401040197E4
:104B9000A9F38B2DDF91CF911F910F91FF90EF9093
:104BA000DF90CF90BF900895CF93DF93EC010E94E8
:104BB0009225BE010E940104DF91CF9108951F93B9
:104BC000CF93DF93EB019091CF02992321F0CB019A
:104BD0000E94D42513C0882349F0CB010E9492255E
:104BE000182F682FCE010E943B2504C0CB010E94E4
:104BF0006625182FBE01812F0E940104DF91CF91FD
:104C00001F91089580912E0385958595859508952A
:104C100080912E038770089590912E03977081E004
:104C200009F480E0089580913A03089590913A0341
:104C3000892B80933A030895809590913A038923B4
:104C400080933A03089510923A030895909139039E
:104C5000892B809339030895809590913903892396
:104C60008093390308951092390308959091380381
:104C7000892B809338030895809590913803892378
:104C800080933803089510923803089580912F037C
:104C9000089508950C9449260C944A2690912F0368
:104CA000981721F080932F030C944C26089580913F
:104CB0002F03882329F010922F0380E00C944C26B8
:104CC0000895E091E101F091E20180913A0380833F
:104CD000E091E101F091E201908180913903892B0B
:104CE0008083E091E101F091E201908180913803AD
:104CF000892B808380912F03882381F0E091E1014B
:104D0000F091E2019081892B80838091E101909163
:104D1000E2010E947A2781110E9457268091E101C9
:104D20009091E2010C94071B0C94492698E0899F0E
:104D300090011124262B20932E030E949D24809104
:104D40002E038595859585950C94942610922E03B7
:104D500080E00C94942620912E03809582238093EA
:104D60002E03982F977079F430E0482F082E000C0E
:104D7000550B2417350739F08595859585950E9443
:104D8000BE240C94A626089580E008956FEF7FEF6F
:104D900080E090E00C94F33080E090E00E94BF301F
:104DA00021E08B3E9E4F09F020E0822F089582E0A3
:104DB00090E00C94B73083E090E00C94B730CF9340
:104DC00084E090E00E94B730C82F81E290E00E941A
:104DD000B7302C2F30E0A901582BCA01CF9108958C
:104DE000CF93C92F682F84E090E00E94D5306C2FBC
:104DF00081E290E0CF910C94D530AB01BC018FE003
:104E000090E00C94E730AB01BC0183E190E00C949E
:104E1000E73060E070E0CB010C94032760E070E0C5
:104E2000CB010E94FD260C9409276BEE7EEF80E0FB
:104E300090E00E94F33060E082E090E00E94D53084
:104E400060E083E090E00E94D53010922A03109237
:104E50002B0310922C0310922D0360E084E090E06D
:104E60000E94D53060E081E290E00E94D53060E0A1
:104E700085E090E00E94D53060E086E090E00E94FE
:104E8000D5306FEF87E090E00E94D53040E050E0F1
:104E9000BA0188E090E00E94E73060E08DE090E0A9
:104EA0000E94D53040E050E0BA0188E190E00E94D5
:104EB000E73060E087E190E00E94D53040E050E0CC
:104EC000BA018CE190E00E94E73060E080E290E07F
:104ED0000E94D53040E050E0BA0188E190E00E94A5
:104EE000E7300C940E270C941527682F8EE090E085
:104EF0000C94D530FC01329697E080E0915029F077
:104F000021912223D9F38F5FF9CF0895662349F0C9
:104F1000FC01329608962191621729F0E817F907EB
:104F2000D1F780E0089581E008959C01FC0132965C
:104F30009FEF80E04191461789F09F3F19F441119E
:104F400001C0982F8F5F8630A9F79F3F39F0F90194
:104F5000E90FF11D97FDFA956283089508959C016C
:104F60002A5F3F4FFC014281461301C01282019625
:104F700082179307B9F708950C9495270C94AF27DF
:104F8000029626E0FC0111922A95E9F7089508950A
:104F90000C94C7270C94C727CF930E94CA270E945E
:104FA00065060E94C827C0E08C2F0E94F005892B5F
:104FB00029F4CF5FC430C1F780E001C081E0CF9118
:104FC00008950C94C72780913204843049F10E94DF
:104FD000170380E00E94D90310923C0320E488E18B
:104FE00090E00FB6F894A895809360000FBE2093D0
:104FF000600083B7817F846083BF83B7816083BF94
:105000007894889583B78E7F83BF0FB6F894A89560
:1050100080916000886180936000109260000FBEF4
:1050200008950E9447200E94FB1A0E94D9030C9405
:105030001C031F920F920FB60F9211248F939F9310
:10504000AF93BF9380913C03811113C080912804DA
:1050500090912904A0912A04B0912B044196A11D9E
:10506000B11D8093280490932904A0932A04B0933F
:105070002B04BF91AF919F918F910F900FBE0F9016
:105080001F90189582E084BD93E095BD9AEF97BD7F
:1050900080936E0008952FB7F89480912804909122
:1050A0002904A0912A04B0912B042FBF08952FB793
:1050B000F894609128047091290480912A049091B9
:1050C0002B042FBF08959C014FB7F89480912804BA
:1050D00090912904A0912A04B0912B044FBF821B08
:1050E000930B0895CF92DF92EF92FF922FB7F8942F
:1050F000C0902804D0902904E0902A04F0902B045A
:105100002FBFA7019601261B370B480B590BCA016D
:10511000B901FF90EF90DF90CF90089578941F929F
:105120000F920FB60F9211248F939F93AF93BF935B
:105130008091280490912904A0912A04B0912B0415
:105140000196A11DB11D8093280490932904A0937A
:105150002A04B0932B04BF91AF919F918F910F9030
:105160000FBE0F901F90189581E08093E00080E2C1
:105170008093D8001092C9008FE19EE40197F1F767
:1051800000C0000087E090EBDC0180933B0490932B
:105190003C04A0933D04B0933E049CE088E10FB62C
:1051A000F894A895809360000FBE90936000FFCFA5
:1051B000909375028093740208950C94C6260E9401
:1051C00065068FE39CE90197F1F700C000000E949B
:1051D000650680E00E94F00580FF04C00E94DD2883
:1051E0000C94B42808950E94CC26811102C00E941C
:1051F00073270E94D72680933B030E94DF2690935B
:105200002D0480932C040E94DB26682F70E080E040
:1052100090E00E943D2460912603709127038091C5
:105220002803909129030C947524809145030895D7
:10523000CF93DF9300D01F92CDB7DEB790913204A9
:10524000943019F589837B836A8382E08093E90037
:105250008FEF9091E800815095FD06C095ED9A95ED
:10526000F1F700008111F5CF8091E80085FF0DC0B6
:1052700040E050E063E070E0CE0101960E94352BE3
:105280008091E8008E778093E8000F900F900F9048
:10529000DF91CF910895BC0184E00C941829BC01E2
:1052A00083E00C94182922E02093E9002FEF30913D
:1052B000E800215035FD06C035ED3A95F1F70000C4
:1052C0002111F5CF2091E80025FF0BC040E050E010
:1052D00066E070E00E94352B8091E8008E77809325
:1052E000E8000895CF93DF9321E02093E9002FEFAA
:1052F0003091E800215035FD06C035ED3A95F1F7C3
:1053000000002111F5CF2091E80025FF14C0EC0129
:1053100040E050E068E070E00E94352B8091E800AA
:105320008E778093E80088E0FE01ADE3B3E0019062
:105330000D928A95E1F7DF91CF9108958091310424
:10534000811109C00E94C62C0E94232D8091E20089
:1053500084608093E20008951092310408950895C6
:105360000895089542E061EC81E00E943F2C42E202
:1053700061EC82E00C943F2C80913404833009F47A
:1053800060C030F4813071F0823009F499C0089522
:105390008A3009F485C08B3009F46BC0893009F07C
:1053A000A7C020C080913304813A09F0A1C0809148
:1053B000E800877F8093E80080913704909138045B
:1053C000892B21F468E08DE393E003C060E080E086
:1053D00090E070E00E94802B8091E8008B778093B2
:1053E000E800089580913304813209F081C08091F2
:1053F000370490913804029708F07AC08091E80051
:10540000877F8093E8008091E80082FD05C080914D
:1054100032048111F8CF6CC02091F3008091F2002A
:1054200090E0922B029729F48091F1008B7F8130DC
:1054300021F48091F100809345038091E8008B77FF
:1054400053C080913304813A09F052C080913704EF
:1054500090913804892B09F04BC08091E800877F38
:105460008093E8008091E80080FFFCCF8091ED01FF
:1054700036C0809133048132D9F580913704909100
:105480003804892BA9F58091E800877F8093E80094
:105490000E94742C809135048093ED010C94472078
:1054A00080913304813221F58091E800877F8093D9
:1054B000E8000E94742C809136048093460308957E
:1054C00080913304813AA1F48091E800877F809332
:1054D000E8008091E80080FFFCCF80914603809334
:1054E000F1008091E8008E778093E8000C94742C92
:1054F000089584B7877F84BF0FB6F894A8958091EC
:105500006000886180936000109260000FBE90E0A0
:1055100080E80FB6F89480936100909361000FBE0D
:105520000E94771B0E94C62C0E94232D8091E200CE
:1055300084608093E20078940E94B82F0E94811BBF
:1055400083EE91E00E94F61A809132048530A9F42E
:1055500080913204853079F40E94E32780913004F1
:105560008823B1F30E94CC27882391F30E941F2B3C
:105570000E944720EDCF0E9411280E94891B0E94A3
:105580006B1B0E946A1BE0CF0C94C62A292F33277D
:1055900023303105C9F060F42130310581F022302B
:1055A000310509F044C08BE390E024E934E043C0C6
:1055B00021323105E1F02232310549F138C082E172
:1055C00090E02FEC34E037C099278130910549F005
:1055D00028F0029761F5E4E5F4E005C0E0E9F4E0C5
:1055E00002C0E8E7F4E0849190E09F0124C06115D7
:1055F000710541F061307105D1F489E090E02FEB45
:1056000034E019C089E090E026EA34E014C0611566
:10561000710541F06130710551F48BE790E021EEA6
:1056200034E009C080E490E02CE535E004C080E07F
:1056300090E020E030E0FA0131832083089580E19A
:1056400089BD82E189BD09B400FEFDCF8091D800FB
:105650008F7D8093D8008091E00082608093E0008D
:105660008091E00081FDFCCF0895CF92DF92EF9210
:10567000FF920F931F93CF93DF93EC018B017A017D
:105680000E94932C811133C0E114F10439F0F70129
:1056900080819181081B190BC80FD91FC12CD12CF7
:1056A0000115110519F18091E80085FD16C0809162
:1056B000E8008E778093E800E114F10449F0F701E7
:1056C00080819181C80ED91ED182C08285E00FC031
:1056D0000E94932C882321F30AC089918093F100C2
:1056E00001501109FFEFCF1ADF0ADACF80E0DF9116
:1056F000CF911F910F91FF90EF90DF90CF90089581
:105700002091390430913A042617370748F0611583
:10571000710539F42091E8002E772093E80001C04C
:10572000B901FC0120E06115710579F18091320425
:105730008823F1F18530F1F18091E80083FD3CC0D0
:105740008091E80082FD2EC08091E80080FFEBCFC1
:105750002091F3008091F20090E0922B6115710589
:1057600051F08830910538F421912093F100615077
:1057700071090196F3CF21E0089709F020E08091AC
:10578000E8008E778093E800CECF2111CFCF0AC0FA
:1057900080913204882361F0853061F08091E800C7
:1057A00083FD0AC08091E80082FFF2CF80E0089577
:1057B00082E0089583E0089581E0089520913904FE
:1057C00030913A042617370748F06115710539F40E
:1057D0002091E8002E772093E80001C0B901FC0178
:1057E00020E06115710591F180913204882309F45C
:1057F00040C0853009F43FC08091E80083FD3DC082
:105800008091E80082FD2FC08091E80080FFE9CF01
:105810002091F3008091F20090E0922B61157105C8
:1058200059F08830910540F424912093F10031968D
:10583000615071090196F2CF21E0089709F020E04C
:105840008091E8008E778093E800CBCF2111CCCFF8
:105850000AC080913204882361F0853061F0809124
:10586000E80083FD0AC08091E80082FFF2CF80E06B
:10587000089582E0089583E0089581E00895982FC7
:10588000973068F59093E900981739F07091EC0023
:105890002091ED005091F00003C0242F762F50E0AE
:1058A00021FD02C09F5FECCF3091EB003E7F309333
:1058B000EB003091ED003D7F3093ED003091EB0037
:1058C00031603093EB007093EC002093ED00509327
:1058D000F0002091EE0027FDE5CF80E008958F7065
:1058E0008093E90081E008958091330487FF11C01F
:1058F0008091E80082FD05C0809132048111F8CFCB
:1059000011C08091E8008B770BC08091320488230E
:1059100049F08091E80080FFF8CF8091E8008E7711
:105920008093E80008952091E4003091E50095E629
:105930004091EC00842F817040FF23C08091E800EB
:1059400080FD1DC080913204882399F0853099F044
:105950008091EB0085FD11C04091E4005091E5007D
:105960002417350729F3915011F09A01E1CF84E013
:10597000089582E0089583E0089581E0089580E02D
:1059800008954091E80042FFDDCF08950E94342D34
:105990000E943C2DE0EEF0E0808181608083E8EDA4
:1059A000F0E080818F77808319BCA7EDB0E08C9107
:1059B0008E7F8C9380818F7E808310923104089536
:1059C0000F931F93CF93DF930E94342D0E943C2DA1
:1059D000C8EDD0E088818F7788838881806888834C
:1059E00088818F7D888319BC1092320410922E0416
:1059F0001092300410922F0400EE10E0F801808124
:105A00008B7F808388818160888342E060E080E0D2
:105A10000E943F2CE1EEF0E080818E7F8083E2EEF9
:105A2000F0E0808181608083808188608083F801DC
:105A300080818E7F8083888180618883DF91CF9190
:105A40001F910F910895E8EDF0E080818F7E8083B3
:105A5000E7EDF0E080818160808384E082BF81E0B7
:105A6000809331040C94E02CE8EDF0E080818E7F8F
:105A700080831092E20008951092DA001092E10003
:105A800008951F920F920FB60F9211242F933F93F8
:105A90004F935F936F937F938F939F93AF93BF9336
:105AA000EF93FF938091E10082FF0BC08091E200B1
:105AB00082FF07C08091E1008B7F8093E1000E940C
:105AC000B72F8091DA0080FF1FC08091D80080FF3F
:105AD0001BC08091DA008E7F8093DA008091D9001C
